{
  "_format": "hh-sol-artifact-1",
  "contractName": "Fun",
  "sourceName": "contracts/Fun.sol",
  "abi": [
    {
      "inputs": [],
      "stateMutability": "nonpayable",
      "type": "constructor"
    },
    {
      "anonymous": false,
      "inputs": [
        {
          "indexed": true,
          "internalType": "address",
          "name": "_owner",
          "type": "address"
        },
        {
          "indexed": true,
          "internalType": "address",
          "name": "_spender",
          "type": "address"
        },
        {
          "indexed": false,
          "internalType": "uint256",
          "name": "_value",
          "type": "uint256"
        }
      ],
      "name": "Approval",
      "type": "event"
    },
    {
      "anonymous": false,
      "inputs": [
        {
          "indexed": false,
          "internalType": "address",
          "name": "to",
          "type": "address"
        }
      ],
      "name": "GetFun",
      "type": "event"
    },
    {
      "anonymous": false,
      "inputs": [
        {
          "indexed": true,
          "internalType": "address",
          "name": "_from",
          "type": "address"
        },
        {
          "indexed": true,
          "internalType": "address",
          "name": "_to",
          "type": "address"
        },
        {
          "indexed": false,
          "internalType": "uint256",
          "name": "_value",
          "type": "uint256"
        }
      ],
      "name": "Transfer",
      "type": "event"
    },
    {
      "inputs": [
        {
          "internalType": "address",
          "name": "",
          "type": "address"
        },
        {
          "internalType": "address",
          "name": "",
          "type": "address"
        }
      ],
      "name": "_allowances",
      "outputs": [
        {
          "internalType": "uint256",
          "name": "",
          "type": "uint256"
        }
      ],
      "stateMutability": "view",
      "type": "function"
    },
    {
      "inputs": [],
      "name": "_decimals",
      "outputs": [
        {
          "internalType": "uint8",
          "name": "",
          "type": "uint8"
        }
      ],
      "stateMutability": "view",
      "type": "function"
    },
    {
      "inputs": [],
      "name": "_name",
      "outputs": [
        {
          "internalType": "string",
          "name": "",
          "type": "string"
        }
      ],
      "stateMutability": "view",
      "type": "function"
    },
    {
      "inputs": [],
      "name": "_symbol",
      "outputs": [
        {
          "internalType": "string",
          "name": "",
          "type": "string"
        }
      ],
      "stateMutability": "view",
      "type": "function"
    },
    {
      "inputs": [],
      "name": "_totalSupply",
      "outputs": [
        {
          "internalType": "uint256",
          "name": "",
          "type": "uint256"
        }
      ],
      "stateMutability": "view",
      "type": "function"
    },
    {
      "inputs": [
        {
          "internalType": "address",
          "name": "_owner",
          "type": "address"
        },
        {
          "internalType": "address",
          "name": "_spender",
          "type": "address"
        }
      ],
      "name": "allowance",
      "outputs": [
        {
          "internalType": "uint256",
          "name": "remaining",
          "type": "uint256"
        }
      ],
      "stateMutability": "view",
      "type": "function"
    },
    {
      "inputs": [
        {
          "internalType": "address",
          "name": "_spender",
          "type": "address"
        },
        {
          "internalType": "uint256",
          "name": "_value",
          "type": "uint256"
        }
      ],
      "name": "approve",
      "outputs": [
        {
          "internalType": "bool",
          "name": "success",
          "type": "bool"
        }
      ],
      "stateMutability": "nonpayable",
      "type": "function"
    },
    {
      "inputs": [
        {
          "internalType": "address",
          "name": "_owner",
          "type": "address"
        }
      ],
      "name": "balanceOf",
      "outputs": [
        {
          "internalType": "uint256",
          "name": "balance",
          "type": "uint256"
        }
      ],
      "stateMutability": "view",
      "type": "function"
    },
    {
      "inputs": [
        {
          "internalType": "address",
          "name": "",
          "type": "address"
        }
      ],
      "name": "balances",
      "outputs": [
        {
          "internalType": "uint256",
          "name": "",
          "type": "uint256"
        }
      ],
      "stateMutability": "view",
      "type": "function"
    },
    {
      "inputs": [],
      "name": "decimals",
      "outputs": [
        {
          "internalType": "uint8",
          "name": "",
          "type": "uint8"
        }
      ],
      "stateMutability": "view",
      "type": "function"
    },
    {
      "inputs": [
        {
          "internalType": "uint256",
          "name": "amount",
          "type": "uint256"
        }
      ],
      "name": "getFun",
      "outputs": [],
      "stateMutability": "nonpayable",
      "type": "function"
    },
    {
      "inputs": [],
      "name": "name",
      "outputs": [
        {
          "internalType": "string",
          "name": "",
          "type": "string"
        }
      ],
      "stateMutability": "view",
      "type": "function"
    },
    {
      "inputs": [],
      "name": "symbol",
      "outputs": [
        {
          "internalType": "string",
          "name": "",
          "type": "string"
        }
      ],
      "stateMutability": "view",
      "type": "function"
    },
    {
      "inputs": [],
      "name": "tokenOwner",
      "outputs": [
        {
          "internalType": "address",
          "name": "",
          "type": "address"
        }
      ],
      "stateMutability": "view",
      "type": "function"
    },
    {
      "inputs": [],
      "name": "totalSupply",
      "outputs": [
        {
          "internalType": "uint256",
          "name": "",
          "type": "uint256"
        }
      ],
      "stateMutability": "view",
      "type": "function"
    },
    {
      "inputs": [
        {
          "internalType": "address",
          "name": "_to",
          "type": "address"
        },
        {
          "internalType": "uint256",
          "name": "_value",
          "type": "uint256"
        }
      ],
      "name": "transfer",
      "outputs": [
        {
          "internalType": "bool",
          "name": "success",
          "type": "bool"
        }
      ],
      "stateMutability": "nonpayable",
      "type": "function"
    },
    {
      "inputs": [
        {
          "internalType": "address",
          "name": "_from",
          "type": "address"
        },
        {
          "internalType": "address",
          "name": "_to",
          "type": "address"
        },
        {
          "internalType": "uint256",
          "name": "_value",
          "type": "uint256"
        }
      ],
      "name": "transferFrom",
      "outputs": [
        {
          "internalType": "bool",
          "name": "success",
          "type": "bool"
        }
      ],
      "stateMutability": "nonpayable",
      "type": "function"
    }
  ],
  "bytecode": "0x608060405273fe42fa5813bf22df779f96805aa8c2b40ce91279600660006101000a81548173ffffffffffffffffffffffffffffffffffffffff021916908373ffffffffffffffffffffffffffffffffffffffff1602179055503480156200006657600080fd5b506101f46040518060400160405280600981526020017f46756e20746f6b656e000000000000000000000000000000000000000000000081525060006040518060400160405280600381526020017f46554e000000000000000000000000000000000000000000000000000000000081525069d3c21bcecceda100000084111562000128576040517f08c379a00000000000000000000000000000000000000000000000000000000081526004016200011f90620003e7565b60405180910390fd5b83600080600660009054906101000a900473ffffffffffffffffffffffffffffffffffffffff1673ffffffffffffffffffffffffffffffffffffffff1673ffffffffffffffffffffffffffffffffffffffff168152602001908152602001600020819055508360016000600660009054906101000a900473ffffffffffffffffffffffffffffffffffffffff1673ffffffffffffffffffffffffffffffffffffffff1673ffffffffffffffffffffffffffffffffffffffff16815260200190815260200160002060003073ffffffffffffffffffffffffffffffffffffffff1673ffffffffffffffffffffffffffffffffffffffff168152602001908152602001600020819055508360028190555082600390805190602001906200024f929190620002cf565b5081600460006101000a81548160ff021916908360ff160217905550806005908051906020019062000283929190620002cf565b505050505033600760006101000a81548173ffffffffffffffffffffffffffffffffffffffff021916908373ffffffffffffffffffffffffffffffffffffffff1602179055506200047f565b828054620002dd906200041a565b90600052602060002090601f0160209004810192826200030157600085556200034d565b82601f106200031c57805160ff19168380011785556200034d565b828001600101855582156200034d579182015b828111156200034c5782518255916020019190600101906200032f565b5b5090506200035c919062000360565b5090565b5b808211156200037b57600081600090555060010162000361565b5090565b60006200038e60218362000409565b91507f4572726f723a20616d6f756e7420726571756573746564206f6620746f6b656e60008301527f73000000000000000000000000000000000000000000000000000000000000006020830152604082019050919050565b6000602082019050818103600083015262000402816200037f565b9050919050565b600082825260208201905092915050565b600060028204905060018216806200043357607f821691505b602082108114156200044a576200044962000450565b5b50919050565b7f4e487b7100000000000000000000000000000000000000000000000000000000600052602260045260246000fd5b611640806200048f6000396000f3fe608060405234801561001057600080fd5b506004361061010b5760003560e01c80633eaaf86b116100a2578063a3e6761011610071578063a3e67610146102d0578063a9059cbb146102ee578063b09f12661461031e578063d28d88521461033c578063dd62ed3e1461035a5761010b565b80633eaaf86b1461024857806370a082311461026657806370c868631461029657806395d89b41146102b25761010b565b806323b872dd116100de57806323b872dd146101ac57806327e235e3146101dc578063313ce5671461020c57806332424aa31461022a5761010b565b8063024c2ddd1461011057806306fdde0314610140578063095ea7b31461015e57806318160ddd1461018e575b600080fd5b61012a60048036038101906101259190610f8b565b61038a565b60405161013791906113c0565b60405180910390f35b6101486103af565b604051610155919061131e565b60405180910390f35b61017860048036038101906101739190611016565b610441565b6040516101859190611303565b60405180910390f35b610196610533565b6040516101a391906113c0565b60405180910390f35b6101c660048036038101906101c19190610fc7565b61053d565b6040516101d39190611303565b60405180910390f35b6101f660048036038101906101f19190610f62565b6108d4565b60405161020391906113c0565b60405180910390f35b6102146108ec565b60405161022191906113db565b60405180910390f35b610232610903565b60405161023f91906113db565b60405180910390f35b610250610916565b60405161025d91906113c0565b60405180910390f35b610280600480360381019061027b9190610f62565b61091c565b60405161028d91906113c0565b60405180910390f35b6102b060048036038101906102ab919061107b565b610964565b005b6102ba610abd565b6040516102c7919061131e565b60405180910390f35b6102d8610b4f565b6040516102e591906112b1565b60405180910390f35b61030860048036038101906103039190611016565b610b75565b6040516103159190611303565b60405180910390f35b610326610d80565b604051610333919061131e565b60405180910390f35b610344610e0e565b604051610351919061131e565b60405180910390f35b610374600480360381019061036f9190610f8b565b610e9c565b60405161038191906113c0565b60405180910390f35b6001602052816000526040600020602052806000526040600020600091509150505481565b6060600380546103be90611524565b80601f01602080910402602001604051908101604052809291908181526020018280546103ea90611524565b80156104375780601f1061040c57610100808354040283529160200191610437565b820191906000526020600020905b81548152906001019060200180831161041a57829003601f168201915b5050505050905090565b600081600160003373ffffffffffffffffffffffffffffffffffffffff1673ffffffffffffffffffffffffffffffffffffffff16815260200190815260200160002060008573ffffffffffffffffffffffffffffffffffffffff1673ffffffffffffffffffffffffffffffffffffffff168152602001908152602001600020819055508273ffffffffffffffffffffffffffffffffffffffff163373ffffffffffffffffffffffffffffffffffffffff167f8c5be1e5ebec7d5bd14f71427d1e84f3dd0314c0f7b2291e5b200ac8c7c3b9258460405161052191906113c0565b60405180910390a36001905092915050565b6000600254905090565b60008073ffffffffffffffffffffffffffffffffffffffff168373ffffffffffffffffffffffffffffffffffffffff1614156105ae576040517f08c379a00000000000000000000000000000000000000000000000000000000081526004016105a590611380565b60405180910390fd5b600073ffffffffffffffffffffffffffffffffffffffff168473ffffffffffffffffffffffffffffffffffffffff16141561061e576040517f08c379a000000000000000000000000000000000000000000000000000000000815260040161061590611340565b60405180910390fd5b816000808673ffffffffffffffffffffffffffffffffffffffff1673ffffffffffffffffffffffffffffffffffffffff16815260200190815260200160002054101580156106e8575081600160008673ffffffffffffffffffffffffffffffffffffffff1673ffffffffffffffffffffffffffffffffffffffff16815260200190815260200160002060003373ffffffffffffffffffffffffffffffffffffffff1673ffffffffffffffffffffffffffffffffffffffff1681526020019081526020016000205410155b610727576040517f08c379a000000000000000000000000000000000000000000000000000000000815260040161071e906113a0565b60405180910390fd5b816000808573ffffffffffffffffffffffffffffffffffffffff1673ffffffffffffffffffffffffffffffffffffffff16815260200190815260200160002060008282546107759190611412565b92505081905550816000808673ffffffffffffffffffffffffffffffffffffffff1673ffffffffffffffffffffffffffffffffffffffff16815260200190815260200160002060008282546107ca9190611468565b9250508190555081600160008673ffffffffffffffffffffffffffffffffffffffff1673ffffffffffffffffffffffffffffffffffffffff16815260200190815260200160002060003373ffffffffffffffffffffffffffffffffffffffff1673ffffffffffffffffffffffffffffffffffffffff168152602001908152602001600020600082825461085d9190611468565b925050819055508273ffffffffffffffffffffffffffffffffffffffff168473ffffffffffffffffffffffffffffffffffffffff167fddf252ad1be2c89b69c2b068fc378daa952ba7f163c4a11628f55a4df523b3ef846040516108c191906113c0565b60405180910390a3600190509392505050565b60006020528060005260406000206000915090505481565b6000600460009054906101000a900460ff16905090565b600460009054906101000a900460ff1681565b60025481565b60008060008373ffffffffffffffffffffffffffffffffffffffff1673ffffffffffffffffffffffffffffffffffffffff168152602001908152602001600020549050919050565b80600080600660009054906101000a900473ffffffffffffffffffffffffffffffffffffffff1673ffffffffffffffffffffffffffffffffffffffff1673ffffffffffffffffffffffffffffffffffffffff1681526020019081526020016000205410156109d157600080fd5b3073ffffffffffffffffffffffffffffffffffffffff166323b872dd600660009054906101000a900473ffffffffffffffffffffffffffffffffffffffff1633846040518463ffffffff1660e01b8152600401610a30939291906112cc565b602060405180830381600087803b158015610a4a57600080fd5b505af1158015610a5e573d6000803e3d6000fd5b505050506040513d601f19601f82011682018060405250810190610a829190611052565b507f8bc8b39d8a6316353741913112578728352835305a340bd6eb42883df89b59aa33604051610ab291906112b1565b60405180910390a150565b606060058054610acc90611524565b80601f0160208091040260200160405190810160405280929190818152602001828054610af890611524565b8015610b455780601f10610b1a57610100808354040283529160200191610b45565b820191906000526020600020905b815481529060010190602001808311610b2857829003601f168201915b5050505050905090565b600760009054906101000a900473ffffffffffffffffffffffffffffffffffffffff1681565b60008073ffffffffffffffffffffffffffffffffffffffff168373ffffffffffffffffffffffffffffffffffffffff161415610be6576040517f08c379a0000000000000000000000000000000000000000000000000000000008152600401610bdd90611380565b60405180910390fd5b816000803373ffffffffffffffffffffffffffffffffffffffff1673ffffffffffffffffffffffffffffffffffffffff168152602001908152602001600020541015610c67576040517f08c379a0000000000000000000000000000000000000000000000000000000008152600401610c5e90611360565b60405180910390fd5b816000803373ffffffffffffffffffffffffffffffffffffffff1673ffffffffffffffffffffffffffffffffffffffff1681526020019081526020016000206000828254610cb59190611468565b92505081905550816000808573ffffffffffffffffffffffffffffffffffffffff1673ffffffffffffffffffffffffffffffffffffffff1681526020019081526020016000206000828254610d0a9190611412565b925050819055508273ffffffffffffffffffffffffffffffffffffffff163373ffffffffffffffffffffffffffffffffffffffff167fddf252ad1be2c89b69c2b068fc378daa952ba7f163c4a11628f55a4df523b3ef84604051610d6e91906113c0565b60405180910390a36001905092915050565b60058054610d8d90611524565b80601f0160208091040260200160405190810160405280929190818152602001828054610db990611524565b8015610e065780601f10610ddb57610100808354040283529160200191610e06565b820191906000526020600020905b815481529060010190602001808311610de957829003601f168201915b505050505081565b60038054610e1b90611524565b80601f0160208091040260200160405190810160405280929190818152602001828054610e4790611524565b8015610e945780601f10610e6957610100808354040283529160200191610e94565b820191906000526020600020905b815481529060010190602001808311610e7757829003601f168201915b505050505081565b6000600160008473ffffffffffffffffffffffffffffffffffffffff1673ffffffffffffffffffffffffffffffffffffffff16815260200190815260200160002060008373ffffffffffffffffffffffffffffffffffffffff1673ffffffffffffffffffffffffffffffffffffffff16815260200190815260200160002054905092915050565b600081359050610f32816115c5565b92915050565b600081519050610f47816115dc565b92915050565b600081359050610f5c816115f3565b92915050565b600060208284031215610f7457600080fd5b6000610f8284828501610f23565b91505092915050565b60008060408385031215610f9e57600080fd5b6000610fac85828601610f23565b9250506020610fbd85828601610f23565b9150509250929050565b600080600060608486031215610fdc57600080fd5b6000610fea86828701610f23565b9350506020610ffb86828701610f23565b925050604061100c86828701610f4d565b9150509250925092565b6000806040838503121561102957600080fd5b600061103785828601610f23565b925050602061104885828601610f4d565b9150509250929050565b60006020828403121561106457600080fd5b600061107284828501610f38565b91505092915050565b60006020828403121561108d57600080fd5b600061109b84828501610f4d565b91505092915050565b6110ad8161149c565b82525050565b6110bc816114ae565b82525050565b60006110cd826113f6565b6110d78185611401565b93506110e78185602086016114f1565b6110f0816115b4565b840191505092915050565b6000611108603483611401565b91507f4572726f723a206974206973206e6f7420706f737369626c6520746f2074726160008301527f6e736665722066726f6d206164647265737320300000000000000000000000006020830152604082019050919050565b600061116e603683611401565b91507f4572726f723a20746f6b656e2062616c616e6365206973206c6f77657220746860008301527f616e207468652076616c756520726571756573746564000000000000000000006020830152604082019050919050565b60006111d4603283611401565b91507f4572726f723a206974206973206e6f7420706f737369626c6520746f2074726160008301527f6e7366657220746f2061646472657373203000000000000000000000000000006020830152604082019050919050565b600061123a604083611401565b91507f4572726f723a20746f6b656e2062616c616e6365206f7220616c6c6f77616e6360008301527f65206973206c6f776572207468616e20616d6f756e74207265717565737465646020830152604082019050919050565b61129c816114da565b82525050565b6112ab816114e4565b82525050565b60006020820190506112c660008301846110a4565b92915050565b60006060820190506112e160008301866110a4565b6112ee60208301856110a4565b6112fb6040830184611293565b949350505050565b600060208201905061131860008301846110b3565b92915050565b6000602082019050818103600083015261133881846110c2565b905092915050565b60006020820190508181036000830152611359816110fb565b9050919050565b6000602082019050818103600083015261137981611161565b9050919050565b60006020820190508181036000830152611399816111c7565b9050919050565b600060208201905081810360008301526113b98161122d565b9050919050565b60006020820190506113d56000830184611293565b92915050565b60006020820190506113f060008301846112a2565b92915050565b600081519050919050565b600082825260208201905092915050565b600061141d826114da565b9150611428836114da565b9250827fffffffffffffffffffffffffffffffffffffffffffffffffffffffffffffffff0382111561145d5761145c611556565b5b828201905092915050565b6000611473826114da565b915061147e836114da565b92508282101561149157611490611556565b5b828203905092915050565b60006114a7826114ba565b9050919050565b60008115159050919050565b600073ffffffffffffffffffffffffffffffffffffffff82169050919050565b6000819050919050565b600060ff82169050919050565b60005b8381101561150f5780820151818401526020810190506114f4565b8381111561151e576000848401525b50505050565b6000600282049050600182168061153c57607f821691505b602082108114156115505761154f611585565b5b50919050565b7f4e487b7100000000000000000000000000000000000000000000000000000000600052601160045260246000fd5b7f4e487b7100000000000000000000000000000000000000000000000000000000600052602260045260246000fd5b6000601f19601f8301169050919050565b6115ce8161149c565b81146115d957600080fd5b50565b6115e5816114ae565b81146115f057600080fd5b50565b6115fc816114da565b811461160757600080fd5b5056fea264697066735822122017770270eb1c17952c5962e0182d7ded14ed6f92688213344f07c8d088a25ab064736f6c63430008000033",
  "linkReferences": {},
  "deployedLinkReferences": {}
}