{
  "_format": "hh-sol-artifact-1",
  "contractName": "Fun",
  "sourceName": "contracts/Fun.sol",
  "abi": [
    {
      "inputs": [],
      "stateMutability": "nonpayable",
      "type": "constructor"
    },
    {
      "anonymous": false,
      "inputs": [
        {
          "indexed": true,
          "internalType": "address",
          "name": "_owner",
          "type": "address"
        },
        {
          "indexed": true,
          "internalType": "address",
          "name": "_spender",
          "type": "address"
        },
        {
          "indexed": false,
          "internalType": "uint256",
          "name": "_value",
          "type": "uint256"
        }
      ],
      "name": "Approval",
      "type": "event"
    },
    {
      "anonymous": false,
      "inputs": [
        {
          "indexed": true,
          "internalType": "address",
          "name": "_from",
          "type": "address"
        },
        {
          "indexed": true,
          "internalType": "address",
          "name": "_to",
          "type": "address"
        },
        {
          "indexed": false,
          "internalType": "uint256",
          "name": "_value",
          "type": "uint256"
        }
      ],
      "name": "Transfer",
      "type": "event"
    },
    {
      "inputs": [
        {
          "internalType": "address",
          "name": "",
          "type": "address"
        },
        {
          "internalType": "address",
          "name": "",
          "type": "address"
        }
      ],
      "name": "_allowances",
      "outputs": [
        {
          "internalType": "uint256",
          "name": "",
          "type": "uint256"
        }
      ],
      "stateMutability": "view",
      "type": "function"
    },
    {
      "inputs": [],
      "name": "_decimals",
      "outputs": [
        {
          "internalType": "uint8",
          "name": "",
          "type": "uint8"
        }
      ],
      "stateMutability": "view",
      "type": "function"
    },
    {
      "inputs": [],
      "name": "_name",
      "outputs": [
        {
          "internalType": "string",
          "name": "",
          "type": "string"
        }
      ],
      "stateMutability": "view",
      "type": "function"
    },
    {
      "inputs": [],
      "name": "_symbol",
      "outputs": [
        {
          "internalType": "string",
          "name": "",
          "type": "string"
        }
      ],
      "stateMutability": "view",
      "type": "function"
    },
    {
      "inputs": [],
      "name": "_totalSupply",
      "outputs": [
        {
          "internalType": "uint256",
          "name": "",
          "type": "uint256"
        }
      ],
      "stateMutability": "view",
      "type": "function"
    },
    {
      "inputs": [
        {
          "internalType": "address",
          "name": "_owner",
          "type": "address"
        },
        {
          "internalType": "address",
          "name": "_spender",
          "type": "address"
        }
      ],
      "name": "allowance",
      "outputs": [
        {
          "internalType": "uint256",
          "name": "remaining",
          "type": "uint256"
        }
      ],
      "stateMutability": "view",
      "type": "function"
    },
    {
      "inputs": [
        {
          "internalType": "address",
          "name": "_spender",
          "type": "address"
        },
        {
          "internalType": "uint256",
          "name": "_value",
          "type": "uint256"
        }
      ],
      "name": "approve",
      "outputs": [
        {
          "internalType": "bool",
          "name": "success",
          "type": "bool"
        }
      ],
      "stateMutability": "nonpayable",
      "type": "function"
    },
    {
      "inputs": [
        {
          "internalType": "address",
          "name": "_owner",
          "type": "address"
        }
      ],
      "name": "balanceOf",
      "outputs": [
        {
          "internalType": "uint256",
          "name": "balance",
          "type": "uint256"
        }
      ],
      "stateMutability": "view",
      "type": "function"
    },
    {
      "inputs": [
        {
          "internalType": "address",
          "name": "",
          "type": "address"
        }
      ],
      "name": "balances",
      "outputs": [
        {
          "internalType": "uint256",
          "name": "",
          "type": "uint256"
        }
      ],
      "stateMutability": "view",
      "type": "function"
    },
    {
      "inputs": [],
      "name": "decimals",
      "outputs": [
        {
          "internalType": "uint8",
          "name": "",
          "type": "uint8"
        }
      ],
      "stateMutability": "view",
      "type": "function"
    },
    {
      "inputs": [
        {
          "internalType": "uint256",
          "name": "amount",
          "type": "uint256"
        }
      ],
      "name": "getFun",
      "outputs": [],
      "stateMutability": "nonpayable",
      "type": "function"
    },
    {
      "inputs": [],
      "name": "name",
      "outputs": [
        {
          "internalType": "string",
          "name": "",
          "type": "string"
        }
      ],
      "stateMutability": "view",
      "type": "function"
    },
    {
      "inputs": [],
      "name": "symbol",
      "outputs": [
        {
          "internalType": "string",
          "name": "",
          "type": "string"
        }
      ],
      "stateMutability": "view",
      "type": "function"
    },
    {
      "inputs": [],
      "name": "tokenOwner",
      "outputs": [
        {
          "internalType": "address",
          "name": "",
          "type": "address"
        }
      ],
      "stateMutability": "view",
      "type": "function"
    },
    {
      "inputs": [],
      "name": "totalSupply",
      "outputs": [
        {
          "internalType": "uint256",
          "name": "",
          "type": "uint256"
        }
      ],
      "stateMutability": "view",
      "type": "function"
    },
    {
      "inputs": [
        {
          "internalType": "address",
          "name": "_to",
          "type": "address"
        },
        {
          "internalType": "uint256",
          "name": "_value",
          "type": "uint256"
        }
      ],
      "name": "transfer",
      "outputs": [
        {
          "internalType": "bool",
          "name": "success",
          "type": "bool"
        }
      ],
      "stateMutability": "nonpayable",
      "type": "function"
    },
    {
      "inputs": [
        {
          "internalType": "address",
          "name": "_from",
          "type": "address"
        },
        {
          "internalType": "address",
          "name": "_to",
          "type": "address"
        },
        {
          "internalType": "uint256",
          "name": "_value",
          "type": "uint256"
        }
      ],
      "name": "transferFrom",
      "outputs": [
        {
          "internalType": "bool",
          "name": "success",
          "type": "bool"
        }
      ],
      "stateMutability": "nonpayable",
      "type": "function"
    }
  ],
  "bytecode": "0x608060405273fe42fa5813bf22df779f96805aa8c2b40ce91279600660006101000a81548173ffffffffffffffffffffffffffffffffffffffff021916908373ffffffffffffffffffffffffffffffffffffffff1602179055503480156200006657600080fd5b506101f46040518060400160405280600981526020017f46756e20746f6b656e000000000000000000000000000000000000000000000081525060006040518060400160405280600381526020017f46554e000000000000000000000000000000000000000000000000000000000081525069d3c21bcecceda100000084111562000128576040517f08c379a00000000000000000000000000000000000000000000000000000000081526004016200011f90620003e7565b60405180910390fd5b83600080600660009054906101000a900473ffffffffffffffffffffffffffffffffffffffff1673ffffffffffffffffffffffffffffffffffffffff1673ffffffffffffffffffffffffffffffffffffffff168152602001908152602001600020819055508360016000600660009054906101000a900473ffffffffffffffffffffffffffffffffffffffff1673ffffffffffffffffffffffffffffffffffffffff1673ffffffffffffffffffffffffffffffffffffffff16815260200190815260200160002060003073ffffffffffffffffffffffffffffffffffffffff1673ffffffffffffffffffffffffffffffffffffffff168152602001908152602001600020819055508360028190555082600390805190602001906200024f929190620002cf565b5081600460006101000a81548160ff021916908360ff160217905550806005908051906020019062000283929190620002cf565b505050505033600760006101000a81548173ffffffffffffffffffffffffffffffffffffffff021916908373ffffffffffffffffffffffffffffffffffffffff1602179055506200047f565b828054620002dd906200041a565b90600052602060002090601f0160209004810192826200030157600085556200034d565b82601f106200031c57805160ff19168380011785556200034d565b828001600101855582156200034d579182015b828111156200034c5782518255916020019190600101906200032f565b5b5090506200035c919062000360565b5090565b5b808211156200037b57600081600090555060010162000361565b5090565b60006200038e60218362000409565b91507f4572726f723a20616d6f756e7420726571756573746564206f6620746f6b656e60008301527f73000000000000000000000000000000000000000000000000000000000000006020830152604082019050919050565b6000602082019050818103600083015262000402816200037f565b9050919050565b600082825260208201905092915050565b600060028204905060018216806200043357607f821691505b602082108114156200044a576200044962000450565b5b50919050565b7f4e487b7100000000000000000000000000000000000000000000000000000000600052602260045260246000fd5b611609806200048f6000396000f3fe608060405234801561001057600080fd5b506004361061010b5760003560e01c80633eaaf86b116100a2578063a3e6761011610071578063a3e67610146102d0578063a9059cbb146102ee578063b09f12661461031e578063d28d88521461033c578063dd62ed3e1461035a5761010b565b80633eaaf86b1461024857806370a082311461026657806370c868631461029657806395d89b41146102b25761010b565b806323b872dd116100de57806323b872dd146101ac57806327e235e3146101dc578063313ce5671461020c57806332424aa31461022a5761010b565b8063024c2ddd1461011057806306fdde0314610140578063095ea7b31461015e57806318160ddd1461018e575b600080fd5b61012a60048036038101906101259190610f54565b61038a565b6040516101379190611389565b60405180910390f35b6101486103af565b60405161015591906112e7565b60405180910390f35b61017860048036038101906101739190610fdf565b610441565b60405161018591906112cc565b60405180910390f35b610196610533565b6040516101a39190611389565b60405180910390f35b6101c660048036038101906101c19190610f90565b61053d565b6040516101d391906112cc565b60405180910390f35b6101f660048036038101906101f19190610f2b565b6108d4565b6040516102039190611389565b60405180910390f35b6102146108ec565b60405161022191906113a4565b60405180910390f35b610232610903565b60405161023f91906113a4565b60405180910390f35b610250610916565b60405161025d9190611389565b60405180910390f35b610280600480360381019061027b9190610f2b565b61091c565b60405161028d9190611389565b60405180910390f35b6102b060048036038101906102ab9190611044565b610964565b005b6102ba610a86565b6040516102c791906112e7565b60405180910390f35b6102d8610b18565b6040516102e5919061127a565b60405180910390f35b61030860048036038101906103039190610fdf565b610b3e565b60405161031591906112cc565b60405180910390f35b610326610d49565b60405161033391906112e7565b60405180910390f35b610344610dd7565b60405161035191906112e7565b60405180910390f35b610374600480360381019061036f9190610f54565b610e65565b6040516103819190611389565b60405180910390f35b6001602052816000526040600020602052806000526040600020600091509150505481565b6060600380546103be906114ed565b80601f01602080910402602001604051908101604052809291908181526020018280546103ea906114ed565b80156104375780601f1061040c57610100808354040283529160200191610437565b820191906000526020600020905b81548152906001019060200180831161041a57829003601f168201915b5050505050905090565b600081600160003373ffffffffffffffffffffffffffffffffffffffff1673ffffffffffffffffffffffffffffffffffffffff16815260200190815260200160002060008573ffffffffffffffffffffffffffffffffffffffff1673ffffffffffffffffffffffffffffffffffffffff168152602001908152602001600020819055508273ffffffffffffffffffffffffffffffffffffffff163373ffffffffffffffffffffffffffffffffffffffff167f8c5be1e5ebec7d5bd14f71427d1e84f3dd0314c0f7b2291e5b200ac8c7c3b925846040516105219190611389565b60405180910390a36001905092915050565b6000600254905090565b60008073ffffffffffffffffffffffffffffffffffffffff168373ffffffffffffffffffffffffffffffffffffffff1614156105ae576040517f08c379a00000000000000000000000000000000000000000000000000000000081526004016105a590611349565b60405180910390fd5b600073ffffffffffffffffffffffffffffffffffffffff168473ffffffffffffffffffffffffffffffffffffffff16141561061e576040517f08c379a000000000000000000000000000000000000000000000000000000000815260040161061590611309565b60405180910390fd5b816000808673ffffffffffffffffffffffffffffffffffffffff1673ffffffffffffffffffffffffffffffffffffffff16815260200190815260200160002054101580156106e8575081600160008673ffffffffffffffffffffffffffffffffffffffff1673ffffffffffffffffffffffffffffffffffffffff16815260200190815260200160002060003373ffffffffffffffffffffffffffffffffffffffff1673ffffffffffffffffffffffffffffffffffffffff1681526020019081526020016000205410155b610727576040517f08c379a000000000000000000000000000000000000000000000000000000000815260040161071e90611369565b60405180910390fd5b816000808573ffffffffffffffffffffffffffffffffffffffff1673ffffffffffffffffffffffffffffffffffffffff168152602001908152602001600020600082825461077591906113db565b92505081905550816000808673ffffffffffffffffffffffffffffffffffffffff1673ffffffffffffffffffffffffffffffffffffffff16815260200190815260200160002060008282546107ca9190611431565b9250508190555081600160008673ffffffffffffffffffffffffffffffffffffffff1673ffffffffffffffffffffffffffffffffffffffff16815260200190815260200160002060003373ffffffffffffffffffffffffffffffffffffffff1673ffffffffffffffffffffffffffffffffffffffff168152602001908152602001600020600082825461085d9190611431565b925050819055508273ffffffffffffffffffffffffffffffffffffffff168473ffffffffffffffffffffffffffffffffffffffff167fddf252ad1be2c89b69c2b068fc378daa952ba7f163c4a11628f55a4df523b3ef846040516108c19190611389565b60405180910390a3600190509392505050565b60006020528060005260406000206000915090505481565b6000600460009054906101000a900460ff16905090565b600460009054906101000a900460ff1681565b60025481565b60008060008373ffffffffffffffffffffffffffffffffffffffff1673ffffffffffffffffffffffffffffffffffffffff168152602001908152602001600020549050919050565b80600080600660009054906101000a900473ffffffffffffffffffffffffffffffffffffffff1673ffffffffffffffffffffffffffffffffffffffff1673ffffffffffffffffffffffffffffffffffffffff1681526020019081526020016000205410156109d157600080fd5b3073ffffffffffffffffffffffffffffffffffffffff166323b872dd600660009054906101000a900473ffffffffffffffffffffffffffffffffffffffff1633846040518463ffffffff1660e01b8152600401610a3093929190611295565b602060405180830381600087803b158015610a4a57600080fd5b505af1158015610a5e573d6000803e3d6000fd5b505050506040513d601f19601f82011682018060405250810190610a82919061101b565b5050565b606060058054610a95906114ed565b80601f0160208091040260200160405190810160405280929190818152602001828054610ac1906114ed565b8015610b0e5780601f10610ae357610100808354040283529160200191610b0e565b820191906000526020600020905b815481529060010190602001808311610af157829003601f168201915b5050505050905090565b600760009054906101000a900473ffffffffffffffffffffffffffffffffffffffff1681565b60008073ffffffffffffffffffffffffffffffffffffffff168373ffffffffffffffffffffffffffffffffffffffff161415610baf576040517f08c379a0000000000000000000000000000000000000000000000000000000008152600401610ba690611349565b60405180910390fd5b816000803373ffffffffffffffffffffffffffffffffffffffff1673ffffffffffffffffffffffffffffffffffffffff168152602001908152602001600020541015610c30576040517f08c379a0000000000000000000000000000000000000000000000000000000008152600401610c2790611329565b60405180910390fd5b816000803373ffffffffffffffffffffffffffffffffffffffff1673ffffffffffffffffffffffffffffffffffffffff1681526020019081526020016000206000828254610c7e9190611431565b92505081905550816000808573ffffffffffffffffffffffffffffffffffffffff1673ffffffffffffffffffffffffffffffffffffffff1681526020019081526020016000206000828254610cd391906113db565b925050819055508273ffffffffffffffffffffffffffffffffffffffff163373ffffffffffffffffffffffffffffffffffffffff167fddf252ad1be2c89b69c2b068fc378daa952ba7f163c4a11628f55a4df523b3ef84604051610d379190611389565b60405180910390a36001905092915050565b60058054610d56906114ed565b80601f0160208091040260200160405190810160405280929190818152602001828054610d82906114ed565b8015610dcf5780601f10610da457610100808354040283529160200191610dcf565b820191906000526020600020905b815481529060010190602001808311610db257829003601f168201915b505050505081565b60038054610de4906114ed565b80601f0160208091040260200160405190810160405280929190818152602001828054610e10906114ed565b8015610e5d5780601f10610e3257610100808354040283529160200191610e5d565b820191906000526020600020905b815481529060010190602001808311610e4057829003601f168201915b505050505081565b6000600160008473ffffffffffffffffffffffffffffffffffffffff1673ffffffffffffffffffffffffffffffffffffffff16815260200190815260200160002060008373ffffffffffffffffffffffffffffffffffffffff1673ffffffffffffffffffffffffffffffffffffffff16815260200190815260200160002054905092915050565b600081359050610efb8161158e565b92915050565b600081519050610f10816115a5565b92915050565b600081359050610f25816115bc565b92915050565b600060208284031215610f3d57600080fd5b6000610f4b84828501610eec565b91505092915050565b60008060408385031215610f6757600080fd5b6000610f7585828601610eec565b9250506020610f8685828601610eec565b9150509250929050565b600080600060608486031215610fa557600080fd5b6000610fb386828701610eec565b9350506020610fc486828701610eec565b9250506040610fd586828701610f16565b9150509250925092565b60008060408385031215610ff257600080fd5b600061100085828601610eec565b925050602061101185828601610f16565b9150509250929050565b60006020828403121561102d57600080fd5b600061103b84828501610f01565b91505092915050565b60006020828403121561105657600080fd5b600061106484828501610f16565b91505092915050565b61107681611465565b82525050565b61108581611477565b82525050565b6000611096826113bf565b6110a081856113ca565b93506110b08185602086016114ba565b6110b98161157d565b840191505092915050565b60006110d16034836113ca565b91507f4572726f723a206974206973206e6f7420706f737369626c6520746f2074726160008301527f6e736665722066726f6d206164647265737320300000000000000000000000006020830152604082019050919050565b60006111376036836113ca565b91507f4572726f723a20746f6b656e2062616c616e6365206973206c6f77657220746860008301527f616e207468652076616c756520726571756573746564000000000000000000006020830152604082019050919050565b600061119d6032836113ca565b91507f4572726f723a206974206973206e6f7420706f737369626c6520746f2074726160008301527f6e7366657220746f2061646472657373203000000000000000000000000000006020830152604082019050919050565b60006112036040836113ca565b91507f4572726f723a20746f6b656e2062616c616e6365206f7220616c6c6f77616e6360008301527f65206973206c6f776572207468616e20616d6f756e74207265717565737465646020830152604082019050919050565b611265816114a3565b82525050565b611274816114ad565b82525050565b600060208201905061128f600083018461106d565b92915050565b60006060820190506112aa600083018661106d565b6112b7602083018561106d565b6112c4604083018461125c565b949350505050565b60006020820190506112e1600083018461107c565b92915050565b60006020820190508181036000830152611301818461108b565b905092915050565b60006020820190508181036000830152611322816110c4565b9050919050565b600060208201905081810360008301526113428161112a565b9050919050565b6000602082019050818103600083015261136281611190565b9050919050565b60006020820190508181036000830152611382816111f6565b9050919050565b600060208201905061139e600083018461125c565b92915050565b60006020820190506113b9600083018461126b565b92915050565b600081519050919050565b600082825260208201905092915050565b60006113e6826114a3565b91506113f1836114a3565b9250827fffffffffffffffffffffffffffffffffffffffffffffffffffffffffffffffff038211156114265761142561151f565b5b828201905092915050565b600061143c826114a3565b9150611447836114a3565b92508282101561145a5761145961151f565b5b828203905092915050565b600061147082611483565b9050919050565b60008115159050919050565b600073ffffffffffffffffffffffffffffffffffffffff82169050919050565b6000819050919050565b600060ff82169050919050565b60005b838110156114d85780820151818401526020810190506114bd565b838111156114e7576000848401525b50505050565b6000600282049050600182168061150557607f821691505b602082108114156115195761151861154e565b5b50919050565b7f4e487b7100000000000000000000000000000000000000000000000000000000600052601160045260246000fd5b7f4e487b7100000000000000000000000000000000000000000000000000000000600052602260045260246000fd5b6000601f19601f8301169050919050565b61159781611465565b81146115a257600080fd5b50565b6115ae81611477565b81146115b957600080fd5b50565b6115c5816114a3565b81146115d057600080fd5b5056fea2646970667358221220ec2da4f9b8a62d2918c11dd538ba8cdd01af1877dc3d4e804e3cef7795b6f3f864736f6c63430008000033",
  "linkReferences": {},
  "deployedLinkReferences": {}
}