{
  "_format": "hh-sol-artifact-1",
  "contractName": "Vinylmations",
  "sourceName": "contracts/Vinylmations.sol",
  "abi": [
    {
      "inputs": [
        {
          "internalType": "address",
          "name": "funAddress",
          "type": "address"
        }
      ],
      "stateMutability": "nonpayable",
      "type": "constructor"
    },
    {
      "anonymous": false,
      "inputs": [
        {
          "indexed": true,
          "internalType": "address",
          "name": "owner",
          "type": "address"
        },
        {
          "indexed": true,
          "internalType": "address",
          "name": "approved",
          "type": "address"
        },
        {
          "indexed": true,
          "internalType": "uint256",
          "name": "tokenId",
          "type": "uint256"
        }
      ],
      "name": "Approval",
      "type": "event"
    },
    {
      "anonymous": false,
      "inputs": [
        {
          "indexed": true,
          "internalType": "address",
          "name": "owner",
          "type": "address"
        },
        {
          "indexed": true,
          "internalType": "address",
          "name": "operator",
          "type": "address"
        },
        {
          "indexed": false,
          "internalType": "bool",
          "name": "approved",
          "type": "bool"
        }
      ],
      "name": "ApprovalForAll",
      "type": "event"
    },
    {
      "anonymous": false,
      "inputs": [
        {
          "indexed": true,
          "internalType": "address",
          "name": "from",
          "type": "address"
        },
        {
          "indexed": true,
          "internalType": "address",
          "name": "to",
          "type": "address"
        },
        {
          "indexed": true,
          "internalType": "uint256",
          "name": "tokenId",
          "type": "uint256"
        }
      ],
      "name": "Transfer",
      "type": "event"
    },
    {
      "inputs": [
        {
          "internalType": "address",
          "name": "to",
          "type": "address"
        },
        {
          "internalType": "uint256",
          "name": "tokenId",
          "type": "uint256"
        }
      ],
      "name": "approve",
      "outputs": [],
      "stateMutability": "nonpayable",
      "type": "function"
    },
    {
      "inputs": [
        {
          "internalType": "address",
          "name": "owner",
          "type": "address"
        }
      ],
      "name": "balanceOf",
      "outputs": [
        {
          "internalType": "uint256",
          "name": "",
          "type": "uint256"
        }
      ],
      "stateMutability": "view",
      "type": "function"
    },
    {
      "inputs": [
        {
          "internalType": "uint256",
          "name": "tokenId",
          "type": "uint256"
        }
      ],
      "name": "getApproved",
      "outputs": [
        {
          "internalType": "address",
          "name": "",
          "type": "address"
        }
      ],
      "stateMutability": "view",
      "type": "function"
    },
    {
      "inputs": [
        {
          "internalType": "address",
          "name": "owner",
          "type": "address"
        },
        {
          "internalType": "address",
          "name": "operator",
          "type": "address"
        }
      ],
      "name": "isApprovedForAll",
      "outputs": [
        {
          "internalType": "bool",
          "name": "",
          "type": "bool"
        }
      ],
      "stateMutability": "view",
      "type": "function"
    },
    {
      "inputs": [
        {
          "internalType": "address",
          "name": "to",
          "type": "address"
        }
      ],
      "name": "mint",
      "outputs": [
        {
          "internalType": "uint256",
          "name": "",
          "type": "uint256"
        }
      ],
      "stateMutability": "nonpayable",
      "type": "function"
    },
    {
      "inputs": [],
      "name": "name",
      "outputs": [
        {
          "internalType": "string",
          "name": "",
          "type": "string"
        }
      ],
      "stateMutability": "view",
      "type": "function"
    },
    {
      "inputs": [
        {
          "internalType": "uint256",
          "name": "tokenId",
          "type": "uint256"
        }
      ],
      "name": "ownerOf",
      "outputs": [
        {
          "internalType": "address",
          "name": "",
          "type": "address"
        }
      ],
      "stateMutability": "view",
      "type": "function"
    },
    {
      "inputs": [
        {
          "internalType": "address",
          "name": "from",
          "type": "address"
        },
        {
          "internalType": "address",
          "name": "to",
          "type": "address"
        },
        {
          "internalType": "uint256",
          "name": "tokenId",
          "type": "uint256"
        }
      ],
      "name": "safeTransferFrom",
      "outputs": [],
      "stateMutability": "nonpayable",
      "type": "function"
    },
    {
      "inputs": [
        {
          "internalType": "address",
          "name": "from",
          "type": "address"
        },
        {
          "internalType": "address",
          "name": "to",
          "type": "address"
        },
        {
          "internalType": "uint256",
          "name": "tokenId",
          "type": "uint256"
        },
        {
          "internalType": "bytes",
          "name": "_data",
          "type": "bytes"
        }
      ],
      "name": "safeTransferFrom",
      "outputs": [],
      "stateMutability": "nonpayable",
      "type": "function"
    },
    {
      "inputs": [
        {
          "internalType": "address",
          "name": "operator",
          "type": "address"
        },
        {
          "internalType": "bool",
          "name": "approved",
          "type": "bool"
        }
      ],
      "name": "setApprovalForAll",
      "outputs": [],
      "stateMutability": "nonpayable",
      "type": "function"
    },
    {
      "inputs": [
        {
          "internalType": "bytes4",
          "name": "interfaceId",
          "type": "bytes4"
        }
      ],
      "name": "supportsInterface",
      "outputs": [
        {
          "internalType": "bool",
          "name": "",
          "type": "bool"
        }
      ],
      "stateMutability": "view",
      "type": "function"
    },
    {
      "inputs": [],
      "name": "symbol",
      "outputs": [
        {
          "internalType": "string",
          "name": "",
          "type": "string"
        }
      ],
      "stateMutability": "view",
      "type": "function"
    },
    {
      "inputs": [
        {
          "internalType": "uint256",
          "name": "tokenId",
          "type": "uint256"
        }
      ],
      "name": "tokenURI",
      "outputs": [
        {
          "internalType": "string",
          "name": "",
          "type": "string"
        }
      ],
      "stateMutability": "view",
      "type": "function"
    },
    {
      "inputs": [
        {
          "internalType": "address",
          "name": "from",
          "type": "address"
        },
        {
          "internalType": "address",
          "name": "to",
          "type": "address"
        },
        {
          "internalType": "uint256",
          "name": "tokenId",
          "type": "uint256"
        }
      ],
      "name": "transferFrom",
      "outputs": [],
      "stateMutability": "nonpayable",
      "type": "function"
    }
  ],
  "bytecode": "0x60806040523480156200001157600080fd5b5060405162002c3c38038062002c3c8339818101604052810190620000379190620001e6565b6040518060400160405280600c81526020017f56696e796c6d6174696f6e7300000000000000000000000000000000000000008152506040518060400160405280600381526020017f564e4d00000000000000000000000000000000000000000000000000000000008152508160009080519060200190620000bb9291906200011f565b508060019080519060200190620000d49291906200011f565b50505080600760006101000a81548173ffffffffffffffffffffffffffffffffffffffff021916908373ffffffffffffffffffffffffffffffffffffffff16021790555050620002c5565b8280546200012d9062000246565b90600052602060002090601f0160209004810192826200015157600085556200019d565b82601f106200016c57805160ff19168380011785556200019d565b828001600101855582156200019d579182015b828111156200019c5782518255916020019190600101906200017f565b5b509050620001ac9190620001b0565b5090565b5b80821115620001cb576000816000905550600101620001b1565b5090565b600081519050620001e081620002ab565b92915050565b600060208284031215620001f957600080fd5b60006200020984828501620001cf565b91505092915050565b60006200021f8262000226565b9050919050565b600073ffffffffffffffffffffffffffffffffffffffff82169050919050565b600060028204905060018216806200025f57607f821691505b602082108114156200027657620002756200027c565b5b50919050565b7f4e487b7100000000000000000000000000000000000000000000000000000000600052602260045260246000fd5b620002b68162000212565b8114620002c257600080fd5b50565b61296780620002d56000396000f3fe608060405234801561001057600080fd5b50600436106100ea5760003560e01c80636a6278421161008c578063a22cb46511610066578063a22cb4651461026f578063b88d4fde1461028b578063c87b56dd146102a7578063e985e9c5146102d7576100ea565b80636a627842146101f157806370a082311461022157806395d89b4114610251576100ea565b8063095ea7b3116100c8578063095ea7b31461016d57806323b872dd1461018957806342842e0e146101a55780636352211e146101c1576100ea565b806301ffc9a7146100ef57806306fdde031461011f578063081812fc1461013d575b600080fd5b61010960048036038101906101049190611b58565b610307565b60405161011691906122e8565b60405180910390f35b6101276103e9565b6040516101349190612303565b60405180910390f35b61015760048036038101906101529190611baa565b61047b565b6040516101649190612221565b60405180910390f35b61018760048036038101906101829190611af3565b610500565b005b6101a3600480360381019061019e91906119ed565b610618565b005b6101bf60048036038101906101ba91906119ed565b610678565b005b6101db60048036038101906101d69190611baa565b610698565b6040516101e89190612221565b60405180910390f35b61020b60048036038101906102069190611988565b61074a565b60405161021891906124e5565b60405180910390f35b61023b60048036038101906102369190611988565b610911565b60405161024891906124e5565b60405180910390f35b6102596109c9565b6040516102669190612303565b60405180910390f35b61028960048036038101906102849190611ab7565b610a5b565b005b6102a560048036038101906102a09190611a3c565b610bdc565b005b6102c160048036038101906102bc9190611baa565b610c3e565b6040516102ce9190612303565b60405180910390f35b6102f160048036038101906102ec91906119b1565b610ce5565b6040516102fe91906122e8565b60405180910390f35b60007f80ac58cd000000000000000000000000000000000000000000000000000000007bffffffffffffffffffffffffffffffffffffffffffffffffffffffff1916827bffffffffffffffffffffffffffffffffffffffffffffffffffffffff191614806103d257507f5b5e139f000000000000000000000000000000000000000000000000000000007bffffffffffffffffffffffffffffffffffffffffffffffffffffffff1916827bffffffffffffffffffffffffffffffffffffffffffffffffffffffff1916145b806103e257506103e182610d79565b5b9050919050565b6060600080546103f890612727565b80601f016020809104026020016040519081016040528092919081815260200182805461042490612727565b80156104715780601f1061044657610100808354040283529160200191610471565b820191906000526020600020905b81548152906001019060200180831161045457829003601f168201915b5050505050905090565b600061048682610de3565b6104c5576040517f08c379a00000000000000000000000000000000000000000000000000000000081526004016104bc90612445565b60405180910390fd5b6004600083815260200190815260200160002060009054906101000a900473ffffffffffffffffffffffffffffffffffffffff169050919050565b600061050b82610698565b90508073ffffffffffffffffffffffffffffffffffffffff168373ffffffffffffffffffffffffffffffffffffffff16141561057c576040517f08c379a0000000000000000000000000000000000000000000000000000000008152600401610573906124a5565b60405180910390fd5b8073ffffffffffffffffffffffffffffffffffffffff1661059b610e4f565b73ffffffffffffffffffffffffffffffffffffffff1614806105ca57506105c9816105c4610e4f565b610ce5565b5b610609576040517f08c379a0000000000000000000000000000000000000000000000000000000008152600401610600906123c5565b60405180910390fd5b6106138383610e57565b505050565b610629610623610e4f565b82610f10565b610668576040517f08c379a000000000000000000000000000000000000000000000000000000000815260040161065f906124c5565b60405180910390fd5b610673838383610fee565b505050565b61069383838360405180602001604052806000815250610bdc565b505050565b6000806002600084815260200190815260200160002060009054906101000a900473ffffffffffffffffffffffffffffffffffffffff169050600073ffffffffffffffffffffffffffffffffffffffff168173ffffffffffffffffffffffffffffffffffffffff161415610741576040517f08c379a000000000000000000000000000000000000000000000000000000000815260040161073890612405565b60405180910390fd5b80915050919050565b60006001600760009054906101000a900473ffffffffffffffffffffffffffffffffffffffff1673ffffffffffffffffffffffffffffffffffffffff1663dd62ed3e33306040518363ffffffff1660e01b81526004016107ab92919061223c565b60206040518083038186803b1580156107c357600080fd5b505afa1580156107d7573d6000803e3d6000fd5b505050506040513d601f19601f820116820180604052508101906107fb9190611bd3565b101561080657600080fd5b600a610812600661124a565b1061081c57600080fd5b600760009054906101000a900473ffffffffffffffffffffffffffffffffffffffff1673ffffffffffffffffffffffffffffffffffffffff166323b872dd33737c559dcbd939761974184f1bcd359621672d2e0560016040518463ffffffff1660e01b815260040161089093929190612265565b602060405180830381600087803b1580156108aa57600080fd5b505af11580156108be573d6000803e3d6000fd5b505050506040513d601f19601f820116820180604052508101906108e29190611b2f565b506108ed6006611258565b610900826108fb600661124a565b61126e565b61090a600661124a565b9050919050565b60008073ffffffffffffffffffffffffffffffffffffffff168273ffffffffffffffffffffffffffffffffffffffff161415610982576040517f08c379a0000000000000000000000000000000000000000000000000000000008152600401610979906123e5565b60405180910390fd5b600360008373ffffffffffffffffffffffffffffffffffffffff1673ffffffffffffffffffffffffffffffffffffffff168152602001908152602001600020549050919050565b6060600180546109d890612727565b80601f0160208091040260200160405190810160405280929190818152602001828054610a0490612727565b8015610a515780601f10610a2657610100808354040283529160200191610a51565b820191906000526020600020905b815481529060010190602001808311610a3457829003601f168201915b5050505050905090565b610a63610e4f565b73ffffffffffffffffffffffffffffffffffffffff168273ffffffffffffffffffffffffffffffffffffffff161415610ad1576040517f08c379a0000000000000000000000000000000000000000000000000000000008152600401610ac890612385565b60405180910390fd5b8060056000610ade610e4f565b73ffffffffffffffffffffffffffffffffffffffff1673ffffffffffffffffffffffffffffffffffffffff16815260200190815260200160002060008473ffffffffffffffffffffffffffffffffffffffff1673ffffffffffffffffffffffffffffffffffffffff16815260200190815260200160002060006101000a81548160ff0219169083151502179055508173ffffffffffffffffffffffffffffffffffffffff16610b8b610e4f565b73ffffffffffffffffffffffffffffffffffffffff167f17307eab39ab6107e8899845ad3d59bd9653f200f220920489ca2b5937696c3183604051610bd091906122e8565b60405180910390a35050565b610bed610be7610e4f565b83610f10565b610c2c576040517f08c379a0000000000000000000000000000000000000000000000000000000008152600401610c23906124c5565b60405180910390fd5b610c388484848461128c565b50505050565b6060610c4982610de3565b610c88576040517f08c379a0000000000000000000000000000000000000000000000000000000008152600401610c7f90612485565b60405180910390fd5b6000610c926112e8565b90506000815111610cb25760405180602001604052806000815250610cdd565b80610cbc84611308565b604051602001610ccd9291906121fd565b6040516020818303038152906040525b915050919050565b6000600560008473ffffffffffffffffffffffffffffffffffffffff1673ffffffffffffffffffffffffffffffffffffffff16815260200190815260200160002060008373ffffffffffffffffffffffffffffffffffffffff1673ffffffffffffffffffffffffffffffffffffffff16815260200190815260200160002060009054906101000a900460ff16905092915050565b60007f01ffc9a7000000000000000000000000000000000000000000000000000000007bffffffffffffffffffffffffffffffffffffffffffffffffffffffff1916827bffffffffffffffffffffffffffffffffffffffffffffffffffffffff1916149050919050565b60008073ffffffffffffffffffffffffffffffffffffffff166002600084815260200190815260200160002060009054906101000a900473ffffffffffffffffffffffffffffffffffffffff1673ffffffffffffffffffffffffffffffffffffffff1614159050919050565b600033905090565b816004600083815260200190815260200160002060006101000a81548173ffffffffffffffffffffffffffffffffffffffff021916908373ffffffffffffffffffffffffffffffffffffffff160217905550808273ffffffffffffffffffffffffffffffffffffffff16610eca83610698565b73ffffffffffffffffffffffffffffffffffffffff167f8c5be1e5ebec7d5bd14f71427d1e84f3dd0314c0f7b2291e5b200ac8c7c3b92560405160405180910390a45050565b6000610f1b82610de3565b610f5a576040517f08c379a0000000000000000000000000000000000000000000000000000000008152600401610f51906123a5565b60405180910390fd5b6000610f6583610698565b90508073ffffffffffffffffffffffffffffffffffffffff168473ffffffffffffffffffffffffffffffffffffffff161480610fd457508373ffffffffffffffffffffffffffffffffffffffff16610fbc8461047b565b73ffffffffffffffffffffffffffffffffffffffff16145b80610fe55750610fe48185610ce5565b5b91505092915050565b8273ffffffffffffffffffffffffffffffffffffffff1661100e82610698565b73ffffffffffffffffffffffffffffffffffffffff1614611064576040517f08c379a000000000000000000000000000000000000000000000000000000000815260040161105b90612465565b60405180910390fd5b600073ffffffffffffffffffffffffffffffffffffffff168273ffffffffffffffffffffffffffffffffffffffff1614156110d4576040517f08c379a00000000000000000000000000000000000000000000000000000000081526004016110cb90612365565b60405180910390fd5b6110df8383836114b5565b6110ea600082610e57565b6001600360008573ffffffffffffffffffffffffffffffffffffffff1673ffffffffffffffffffffffffffffffffffffffff168152602001908152602001600020600082825461113a919061262b565b925050819055506001600360008473ffffffffffffffffffffffffffffffffffffffff1673ffffffffffffffffffffffffffffffffffffffff168152602001908152602001600020600082825461119191906125a4565b92505081905550816002600083815260200190815260200160002060006101000a81548173ffffffffffffffffffffffffffffffffffffffff021916908373ffffffffffffffffffffffffffffffffffffffff160217905550808273ffffffffffffffffffffffffffffffffffffffff168473ffffffffffffffffffffffffffffffffffffffff167fddf252ad1be2c89b69c2b068fc378daa952ba7f163c4a11628f55a4df523b3ef60405160405180910390a4505050565b600081600001549050919050565b6001816000016000828254019250508190555050565b6112888282604051806020016040528060008152506114ba565b5050565b611297848484610fee565b6112a384848484611515565b6112e2576040517f08c379a00000000000000000000000000000000000000000000000000000000081526004016112d990612325565b60405180910390fd5b50505050565b60606040518060600160405280603581526020016128fd60359139905090565b60606000821415611350576040518060400160405280600181526020017f300000000000000000000000000000000000000000000000000000000000000081525090506114b0565b600082905060005b6000821461138257808061136b90612759565b915050600a8261137b91906125fa565b9150611358565b60008167ffffffffffffffff8111156113c4577f4e487b7100000000000000000000000000000000000000000000000000000000600052604160045260246000fd5b6040519080825280601f01601f1916602001820160405280156113f65781602001600182028036833780820191505090505b5090505b600085146114a95760018261140f919061262b565b9150600a8561141e91906127a2565b603061142a91906125a4565b60f81b818381518110611466577f4e487b7100000000000000000000000000000000000000000000000000000000600052603260045260246000fd5b60200101907effffffffffffffffffffffffffffffffffffffffffffffffffffffffffffff1916908160001a905350600a856114a291906125fa565b94506113fa565b8093505050505b919050565b505050565b6114c483836116ac565b6114d16000848484611515565b611510576040517f08c379a000000000000000000000000000000000000000000000000000000000815260040161150790612325565b60405180910390fd5b505050565b60006115368473ffffffffffffffffffffffffffffffffffffffff1661187a565b1561169f578373ffffffffffffffffffffffffffffffffffffffff1663150b7a0261155f610e4f565b8786866040518563ffffffff1660e01b8152600401611581949392919061229c565b602060405180830381600087803b15801561159b57600080fd5b505af19250505080156115cc57506040513d601f19601f820116820180604052508101906115c99190611b81565b60015b61164f573d80600081146115fc576040519150601f19603f3d011682016040523d82523d6000602084013e611601565b606091505b50600081511415611647576040517f08c379a000000000000000000000000000000000000000000000000000000000815260040161163e90612325565b60405180910390fd5b805181602001fd5b63150b7a0260e01b7bffffffffffffffffffffffffffffffffffffffffffffffffffffffff1916817bffffffffffffffffffffffffffffffffffffffffffffffffffffffff1916149150506116a4565b600190505b949350505050565b600073ffffffffffffffffffffffffffffffffffffffff168273ffffffffffffffffffffffffffffffffffffffff16141561171c576040517f08c379a000000000000000000000000000000000000000000000000000000000815260040161171390612425565b60405180910390fd5b61172581610de3565b15611765576040517f08c379a000000000000000000000000000000000000000000000000000000000815260040161175c90612345565b60405180910390fd5b611771600083836114b5565b6001600360008473ffffffffffffffffffffffffffffffffffffffff1673ffffffffffffffffffffffffffffffffffffffff16815260200190815260200160002060008282546117c191906125a4565b92505081905550816002600083815260200190815260200160002060006101000a81548173ffffffffffffffffffffffffffffffffffffffff021916908373ffffffffffffffffffffffffffffffffffffffff160217905550808273ffffffffffffffffffffffffffffffffffffffff16600073ffffffffffffffffffffffffffffffffffffffff167fddf252ad1be2c89b69c2b068fc378daa952ba7f163c4a11628f55a4df523b3ef60405160405180910390a45050565b600080823b905060008111915050919050565b60006118a061189b84612531565b612500565b9050828152602081018484840111156118b857600080fd5b6118c38482856126e5565b509392505050565b6000813590506118da816128a0565b92915050565b6000813590506118ef816128b7565b92915050565b600081519050611904816128b7565b92915050565b600081359050611919816128ce565b92915050565b60008151905061192e816128ce565b92915050565b600082601f83011261194557600080fd5b813561195584826020860161188d565b91505092915050565b60008135905061196d816128e5565b92915050565b600081519050611982816128e5565b92915050565b60006020828403121561199a57600080fd5b60006119a8848285016118cb565b91505092915050565b600080604083850312156119c457600080fd5b60006119d2858286016118cb565b92505060206119e3858286016118cb565b9150509250929050565b600080600060608486031215611a0257600080fd5b6000611a10868287016118cb565b9350506020611a21868287016118cb565b9250506040611a328682870161195e565b9150509250925092565b60008060008060808587031215611a5257600080fd5b6000611a60878288016118cb565b9450506020611a71878288016118cb565b9350506040611a828782880161195e565b925050606085013567ffffffffffffffff811115611a9f57600080fd5b611aab87828801611934565b91505092959194509250565b60008060408385031215611aca57600080fd5b6000611ad8858286016118cb565b9250506020611ae9858286016118e0565b9150509250929050565b60008060408385031215611b0657600080fd5b6000611b14858286016118cb565b9250506020611b258582860161195e565b9150509250929050565b600060208284031215611b4157600080fd5b6000611b4f848285016118f5565b91505092915050565b600060208284031215611b6a57600080fd5b6000611b788482850161190a565b91505092915050565b600060208284031215611b9357600080fd5b6000611ba18482850161191f565b91505092915050565b600060208284031215611bbc57600080fd5b6000611bca8482850161195e565b91505092915050565b600060208284031215611be557600080fd5b6000611bf384828501611973565b91505092915050565b611c058161265f565b82525050565b611c1481612671565b82525050565b6000611c2582612561565b611c2f8185612577565b9350611c3f8185602086016126f4565b611c488161288f565b840191505092915050565b611c5c816126d3565b82525050565b6000611c6d8261256c565b611c778185612588565b9350611c878185602086016126f4565b611c908161288f565b840191505092915050565b6000611ca68261256c565b611cb08185612599565b9350611cc08185602086016126f4565b80840191505092915050565b6000611cd9603283612588565b91507f4552433732313a207472616e7366657220746f206e6f6e20455243373231526560008301527f63656976657220696d706c656d656e74657200000000000000000000000000006020830152604082019050919050565b6000611d3f601c83612588565b91507f4552433732313a20746f6b656e20616c7265616479206d696e746564000000006000830152602082019050919050565b6000611d7f602483612588565b91507f4552433732313a207472616e7366657220746f20746865207a65726f2061646460008301527f72657373000000000000000000000000000000000000000000000000000000006020830152604082019050919050565b6000611de5601983612588565b91507f4552433732313a20617070726f766520746f2063616c6c6572000000000000006000830152602082019050919050565b6000611e25602c83612588565b91507f4552433732313a206f70657261746f7220717565727920666f72206e6f6e657860008301527f697374656e7420746f6b656e00000000000000000000000000000000000000006020830152604082019050919050565b6000611e8b603883612588565b91507f4552433732313a20617070726f76652063616c6c6572206973206e6f74206f7760008301527f6e6572206e6f7220617070726f76656420666f7220616c6c00000000000000006020830152604082019050919050565b6000611ef1602a83612588565b91507f4552433732313a2062616c616e636520717565727920666f7220746865207a6560008301527f726f2061646472657373000000000000000000000000000000000000000000006020830152604082019050919050565b6000611f57602983612588565b91507f4552433732313a206f776e657220717565727920666f72206e6f6e657869737460008301527f656e7420746f6b656e00000000000000000000000000000000000000000000006020830152604082019050919050565b6000611fbd602083612588565b91507f4552433732313a206d696e7420746f20746865207a65726f20616464726573736000830152602082019050919050565b6000611ffd602c83612588565b91507f4552433732313a20617070726f76656420717565727920666f72206e6f6e657860008301527f697374656e7420746f6b656e00000000000000000000000000000000000000006020830152604082019050919050565b6000612063602983612588565b91507f4552433732313a207472616e73666572206f6620746f6b656e2074686174206960008301527f73206e6f74206f776e00000000000000000000000000000000000000000000006020830152604082019050919050565b60006120c9602f83612588565b91507f4552433732314d657461646174613a2055524920717565727920666f72206e6f60008301527f6e6578697374656e7420746f6b656e00000000000000000000000000000000006020830152604082019050919050565b600061212f602183612588565b91507f4552433732313a20617070726f76616c20746f2063757272656e74206f776e6560008301527f72000000000000000000000000000000000000000000000000000000000000006020830152604082019050919050565b6000612195603183612588565b91507f4552433732313a207472616e736665722063616c6c6572206973206e6f74206f60008301527f776e6572206e6f7220617070726f7665640000000000000000000000000000006020830152604082019050919050565b6121f7816126c9565b82525050565b60006122098285611c9b565b91506122158284611c9b565b91508190509392505050565b60006020820190506122366000830184611bfc565b92915050565b60006040820190506122516000830185611bfc565b61225e6020830184611bfc565b9392505050565b600060608201905061227a6000830186611bfc565b6122876020830185611bfc565b6122946040830184611c53565b949350505050565b60006080820190506122b16000830187611bfc565b6122be6020830186611bfc565b6122cb60408301856121ee565b81810360608301526122dd8184611c1a565b905095945050505050565b60006020820190506122fd6000830184611c0b565b92915050565b6000602082019050818103600083015261231d8184611c62565b905092915050565b6000602082019050818103600083015261233e81611ccc565b9050919050565b6000602082019050818103600083015261235e81611d32565b9050919050565b6000602082019050818103600083015261237e81611d72565b9050919050565b6000602082019050818103600083015261239e81611dd8565b9050919050565b600060208201905081810360008301526123be81611e18565b9050919050565b600060208201905081810360008301526123de81611e7e565b9050919050565b600060208201905081810360008301526123fe81611ee4565b9050919050565b6000602082019050818103600083015261241e81611f4a565b9050919050565b6000602082019050818103600083015261243e81611fb0565b9050919050565b6000602082019050818103600083015261245e81611ff0565b9050919050565b6000602082019050818103600083015261247e81612056565b9050919050565b6000602082019050818103600083015261249e816120bc565b9050919050565b600060208201905081810360008301526124be81612122565b9050919050565b600060208201905081810360008301526124de81612188565b9050919050565b60006020820190506124fa60008301846121ee565b92915050565b6000604051905081810181811067ffffffffffffffff8211171561252757612526612860565b5b8060405250919050565b600067ffffffffffffffff82111561254c5761254b612860565b5b601f19601f8301169050602081019050919050565b600081519050919050565b600081519050919050565b600082825260208201905092915050565b600082825260208201905092915050565b600081905092915050565b60006125af826126c9565b91506125ba836126c9565b9250827fffffffffffffffffffffffffffffffffffffffffffffffffffffffffffffffff038211156125ef576125ee6127d3565b5b828201905092915050565b6000612605826126c9565b9150612610836126c9565b9250826126205761261f612802565b5b828204905092915050565b6000612636826126c9565b9150612641836126c9565b925082821015612654576126536127d3565b5b828203905092915050565b600061266a826126a9565b9050919050565b60008115159050919050565b60007fffffffff0000000000000000000000000000000000000000000000000000000082169050919050565b600073ffffffffffffffffffffffffffffffffffffffff82169050919050565b6000819050919050565b60006126de826126c9565b9050919050565b82818337600083830152505050565b60005b838110156127125780820151818401526020810190506126f7565b83811115612721576000848401525b50505050565b6000600282049050600182168061273f57607f821691505b6020821081141561275357612752612831565b5b50919050565b6000612764826126c9565b91507fffffffffffffffffffffffffffffffffffffffffffffffffffffffffffffffff821415612797576127966127d3565b5b600182019050919050565b60006127ad826126c9565b91506127b8836126c9565b9250826127c8576127c7612802565b5b828206905092915050565b7f4e487b7100000000000000000000000000000000000000000000000000000000600052601160045260246000fd5b7f4e487b7100000000000000000000000000000000000000000000000000000000600052601260045260246000fd5b7f4e487b7100000000000000000000000000000000000000000000000000000000600052602260045260246000fd5b7f4e487b7100000000000000000000000000000000000000000000000000000000600052604160045260246000fd5b6000601f19601f8301169050919050565b6128a98161265f565b81146128b457600080fd5b50565b6128c081612671565b81146128cb57600080fd5b50565b6128d78161267d565b81146128e257600080fd5b50565b6128ee816126c9565b81146128f957600080fd5b5056fe68747470733a2f2f346234312d3138312d32382d3132362d3139342e6e67726f6b2e696f2f6170692f6572633732312f313f69643da2646970667358221220dccbfb856e0117cfa9bd44a16581def4f01a29497883fb723e36269f421ea07264736f6c63430008000033",
  "linkReferences": {},
  "deployedLinkReferences": {}
}