{
  "_format": "hh-sol-artifact-1",
  "contractName": "Vinylmations",
  "sourceName": "contracts/Vinylmations.sol",
  "abi": [
    {
      "inputs": [],
      "stateMutability": "nonpayable",
      "type": "constructor"
    },
    {
      "anonymous": false,
      "inputs": [
        {
          "indexed": true,
          "internalType": "address",
          "name": "_owner",
          "type": "address"
        },
        {
          "indexed": true,
          "internalType": "address",
          "name": "_approved",
          "type": "address"
        },
        {
          "indexed": true,
          "internalType": "uint256",
          "name": "_tokenId",
          "type": "uint256"
        }
      ],
      "name": "Approval",
      "type": "event"
    },
    {
      "anonymous": false,
      "inputs": [
        {
          "indexed": true,
          "internalType": "address",
          "name": "_owner",
          "type": "address"
        },
        {
          "indexed": true,
          "internalType": "address",
          "name": "_operator",
          "type": "address"
        },
        {
          "indexed": false,
          "internalType": "bool",
          "name": "_approved",
          "type": "bool"
        }
      ],
      "name": "ApprovalForAll",
      "type": "event"
    },
    {
      "anonymous": false,
      "inputs": [
        {
          "indexed": true,
          "internalType": "address",
          "name": "_from",
          "type": "address"
        },
        {
          "indexed": true,
          "internalType": "address",
          "name": "_to",
          "type": "address"
        },
        {
          "indexed": true,
          "internalType": "uint256",
          "name": "_tokenId",
          "type": "uint256"
        }
      ],
      "name": "Transfer",
      "type": "event"
    },
    {
      "inputs": [],
      "name": "_decimals",
      "outputs": [
        {
          "internalType": "uint8",
          "name": "",
          "type": "uint8"
        }
      ],
      "stateMutability": "view",
      "type": "function"
    },
    {
      "inputs": [],
      "name": "_name",
      "outputs": [
        {
          "internalType": "string",
          "name": "",
          "type": "string"
        }
      ],
      "stateMutability": "view",
      "type": "function"
    },
    {
      "inputs": [
        {
          "internalType": "address",
          "name": "to",
          "type": "address"
        },
        {
          "internalType": "uint256",
          "name": "tokenId",
          "type": "uint256"
        },
        {
          "internalType": "bytes",
          "name": "_data",
          "type": "bytes"
        }
      ],
      "name": "_safeMint",
      "outputs": [],
      "stateMutability": "nonpayable",
      "type": "function"
    },
    {
      "inputs": [
        {
          "internalType": "address",
          "name": "to",
          "type": "address"
        },
        {
          "internalType": "uint256",
          "name": "tokenId",
          "type": "uint256"
        }
      ],
      "name": "_safeMint",
      "outputs": [],
      "stateMutability": "nonpayable",
      "type": "function"
    },
    {
      "inputs": [],
      "name": "_symbol",
      "outputs": [
        {
          "internalType": "string",
          "name": "",
          "type": "string"
        }
      ],
      "stateMutability": "view",
      "type": "function"
    },
    {
      "inputs": [
        {
          "internalType": "address",
          "name": "to",
          "type": "address"
        },
        {
          "internalType": "uint256",
          "name": "tokenId",
          "type": "uint256"
        }
      ],
      "name": "approve",
      "outputs": [],
      "stateMutability": "nonpayable",
      "type": "function"
    },
    {
      "inputs": [
        {
          "internalType": "address",
          "name": "_owner",
          "type": "address"
        }
      ],
      "name": "balanceOf",
      "outputs": [
        {
          "internalType": "uint256",
          "name": "",
          "type": "uint256"
        }
      ],
      "stateMutability": "view",
      "type": "function"
    },
    {
      "inputs": [
        {
          "internalType": "uint256",
          "name": "tokenId",
          "type": "uint256"
        }
      ],
      "name": "getApproved",
      "outputs": [
        {
          "internalType": "address",
          "name": "",
          "type": "address"
        }
      ],
      "stateMutability": "view",
      "type": "function"
    },
    {
      "inputs": [
        {
          "internalType": "address",
          "name": "owner",
          "type": "address"
        },
        {
          "internalType": "address",
          "name": "operator",
          "type": "address"
        }
      ],
      "name": "isApprovedForAll",
      "outputs": [
        {
          "internalType": "bool",
          "name": "",
          "type": "bool"
        }
      ],
      "stateMutability": "view",
      "type": "function"
    },
    {
      "inputs": [
        {
          "internalType": "address",
          "name": "to",
          "type": "address"
        }
      ],
      "name": "mint",
      "outputs": [
        {
          "internalType": "uint256",
          "name": "",
          "type": "uint256"
        }
      ],
      "stateMutability": "nonpayable",
      "type": "function"
    },
    {
      "inputs": [],
      "name": "name",
      "outputs": [
        {
          "internalType": "string",
          "name": "",
          "type": "string"
        }
      ],
      "stateMutability": "view",
      "type": "function"
    },
    {
      "inputs": [
        {
          "internalType": "uint256",
          "name": "tokenId",
          "type": "uint256"
        }
      ],
      "name": "ownerOf",
      "outputs": [
        {
          "internalType": "address",
          "name": "_owner",
          "type": "address"
        }
      ],
      "stateMutability": "view",
      "type": "function"
    },
    {
      "inputs": [
        {
          "internalType": "address",
          "name": "from",
          "type": "address"
        },
        {
          "internalType": "address",
          "name": "to",
          "type": "address"
        },
        {
          "internalType": "uint256",
          "name": "tokenId",
          "type": "uint256"
        }
      ],
      "name": "safeTransferFrom",
      "outputs": [],
      "stateMutability": "nonpayable",
      "type": "function"
    },
    {
      "inputs": [
        {
          "internalType": "address",
          "name": "from",
          "type": "address"
        },
        {
          "internalType": "address",
          "name": "to",
          "type": "address"
        },
        {
          "internalType": "uint256",
          "name": "tokenId",
          "type": "uint256"
        },
        {
          "internalType": "bytes",
          "name": "_data",
          "type": "bytes"
        }
      ],
      "name": "safeTransferFrom",
      "outputs": [],
      "stateMutability": "nonpayable",
      "type": "function"
    },
    {
      "inputs": [
        {
          "internalType": "address",
          "name": "operator",
          "type": "address"
        },
        {
          "internalType": "bool",
          "name": "approved",
          "type": "bool"
        }
      ],
      "name": "setApprovalForAll",
      "outputs": [],
      "stateMutability": "nonpayable",
      "type": "function"
    },
    {
      "inputs": [
        {
          "internalType": "bytes4",
          "name": "interfaceId",
          "type": "bytes4"
        }
      ],
      "name": "supportsInterface",
      "outputs": [
        {
          "internalType": "bool",
          "name": "",
          "type": "bool"
        }
      ],
      "stateMutability": "view",
      "type": "function"
    },
    {
      "inputs": [],
      "name": "symbol",
      "outputs": [
        {
          "internalType": "string",
          "name": "",
          "type": "string"
        }
      ],
      "stateMutability": "view",
      "type": "function"
    },
    {
      "inputs": [
        {
          "internalType": "uint256",
          "name": "tokenId",
          "type": "uint256"
        }
      ],
      "name": "tokenURI",
      "outputs": [
        {
          "internalType": "string",
          "name": "",
          "type": "string"
        }
      ],
      "stateMutability": "view",
      "type": "function"
    },
    {
      "inputs": [
        {
          "internalType": "address",
          "name": "from",
          "type": "address"
        },
        {
          "internalType": "address",
          "name": "to",
          "type": "address"
        },
        {
          "internalType": "uint256",
          "name": "tokenId",
          "type": "uint256"
        }
      ],
      "name": "transferFrom",
      "outputs": [],
      "stateMutability": "nonpayable",
      "type": "function"
    }
  ],
  "bytecode": "0x60806040523480156200001157600080fd5b506040518060400160405280600c81526020017f56696e796c6d6174696f6e7300000000000000000000000000000000000000008152506040518060400160405280600381526020017f564e4d0000000000000000000000000000000000000000000000000000000000815250816004908051906020019062000096929190620000b8565b508060069080519060200190620000af929190620000b8565b505050620001cd565b828054620000c69062000168565b90600052602060002090601f016020900481019282620000ea576000855562000136565b82601f106200010557805160ff191683800117855562000136565b8280016001018555821562000136579182015b828111156200013557825182559160200191906001019062000118565b5b50905062000145919062000149565b5090565b5b80821115620001645760008160009055506001016200014a565b5090565b600060028204905060018216806200018157607f821691505b602082108114156200019857620001976200019e565b5b50919050565b7f4e487b7100000000000000000000000000000000000000000000000000000000600052602260045260246000fd5b6127fe80620001dd6000396000f3fe608060405234801561001057600080fd5b50600436106101215760003560e01c80636a627842116100ad578063b3e1c71811610071578063b3e1c7181461031a578063b88d4fde14610336578063c87b56dd14610352578063d28d885214610382578063e985e9c5146103a057610121565b80636a6278421461026257806370a082311461029257806395d89b41146102c2578063a22cb465146102e0578063b09f1266146102fc57610121565b806323b872dd116100f457806323b872dd146101c057806332424aa3146101dc57806342842e0e146101fa5780636352211e146102165780636a4f832b1461024657610121565b806301ffc9a71461012657806306fdde0314610156578063081812fc14610174578063095ea7b3146101a4575b600080fd5b610140600480360381019061013b9190611ac8565b6103d0565b60405161014d919061218f565b60405180910390f35b61015e61044a565b60405161016b91906121aa565b60405180910390f35b61018e60048036038101906101899190611b1a565b6104dc565b60405161019b9190612128565b60405180910390f35b6101be60048036038101906101b99190611a25565b610561565b005b6101da60048036038101906101d5919061191f565b61066b565b005b6101e46106c4565b6040516101f19190612387565b60405180910390f35b610214600480360381019061020f919061191f565b6106d7565b005b610230600480360381019061022b9190611b1a565b6106f7565b60405161023d9190612128565b60405180910390f35b610260600480360381019061025b9190611a61565b6107a8565b005b61027c600480360381019061027791906118ba565b610803565b604051610289919061236c565b60405180910390f35b6102ac60048036038101906102a791906118ba565b610849565b6040516102b9919061236c565b60405180910390f35b6102ca610901565b6040516102d791906121aa565b60405180910390f35b6102fa60048036038101906102f591906119e9565b610993565b005b610304610aff565b60405161031191906121aa565b60405180910390f35b610334600480360381019061032f9190611a25565b610b8d565b005b610350600480360381019061034b919061196e565b610bab565b005b61036c60048036038101906103679190611b1a565b610c06565b60405161037991906121aa565b60405180910390f35b61038a610cad565b60405161039791906121aa565b60405180910390f35b6103ba60048036038101906103b591906118e3565b610d3b565b6040516103c7919061218f565b60405180910390f35b60007f80ac58cd000000000000000000000000000000000000000000000000000000007bffffffffffffffffffffffffffffffffffffffffffffffffffffffff1916827bffffffffffffffffffffffffffffffffffffffffffffffffffffffff19161480610443575061044282610dcf565b5b9050919050565b606060048054610459906125c4565b80601f0160208091040260200160405190810160405280929190818152602001828054610485906125c4565b80156104d25780601f106104a7576101008083540402835291602001916104d2565b820191906000526020600020905b8154815290600101906020018083116104b557829003601f168201915b5050505050905090565b60006104e782610e39565b610526576040517f08c379a000000000000000000000000000000000000000000000000000000000815260040161051d9061226c565b60405180910390fd5b6002600083815260200190815260200160002060009054906101000a900473ffffffffffffffffffffffffffffffffffffffff169050919050565b600061056c826106f7565b90508073ffffffffffffffffffffffffffffffffffffffff168373ffffffffffffffffffffffffffffffffffffffff1614156105dd576040517f08c379a00000000000000000000000000000000000000000000000000000000081526004016105d49061234c565b60405180910390fd5b8073ffffffffffffffffffffffffffffffffffffffff163373ffffffffffffffffffffffffffffffffffffffff16148061061d575061061c8133610d3b565b5b61065c576040517f08c379a0000000000000000000000000000000000000000000000000000000008152600401610653906121ec565b60405180910390fd5b6106668383610ea4565b505050565b6106753382610f5d565b6106b4576040517f08c379a00000000000000000000000000000000000000000000000000000000081526004016106ab9061232c565b60405180910390fd5b6106bf838383610ff5565b505050565b600560009054906101000a900460ff1681565b6106f283838360405180602001604052806000815250610bab565b505050565b60008060008084815260200190815260200160002060009054906101000a900473ffffffffffffffffffffffffffffffffffffffff169050600073ffffffffffffffffffffffffffffffffffffffff168173ffffffffffffffffffffffffffffffffffffffff16141561079f576040517f08c379a0000000000000000000000000000000000000000000000000000000008152600401610796906122cc565b60405180910390fd5b80915050919050565b6107b28383611238565b6107bf6000848484611404565b6107fe576040517f08c379a00000000000000000000000000000000000000000000000000000000081526004016107f59061220c565b60405180910390fd5b505050565b60006003610811600761157e565b1061081b57600080fd5b610825600761158c565b61083882610833600761157e565b610b8d565b610842600761157e565b9050919050565b60008073ffffffffffffffffffffffffffffffffffffffff168273ffffffffffffffffffffffffffffffffffffffff1614156108ba576040517f08c379a00000000000000000000000000000000000000000000000000000000081526004016108b19061224c565b60405180910390fd5b600160008373ffffffffffffffffffffffffffffffffffffffff1673ffffffffffffffffffffffffffffffffffffffff168152602001908152602001600020549050919050565b606060068054610910906125c4565b80601f016020809104026020016040519081016040528092919081815260200182805461093c906125c4565b80156109895780601f1061095e57610100808354040283529160200191610989565b820191906000526020600020905b81548152906001019060200180831161096c57829003601f168201915b5050505050905090565b8173ffffffffffffffffffffffffffffffffffffffff163373ffffffffffffffffffffffffffffffffffffffff161415610a02576040517f08c379a00000000000000000000000000000000000000000000000000000000081526004016109f9906122ac565b60405180910390fd5b80600360003373ffffffffffffffffffffffffffffffffffffffff1673ffffffffffffffffffffffffffffffffffffffff16815260200190815260200160002060008473ffffffffffffffffffffffffffffffffffffffff1673ffffffffffffffffffffffffffffffffffffffff16815260200190815260200160002060006101000a81548160ff0219169083151502179055508173ffffffffffffffffffffffffffffffffffffffff163373ffffffffffffffffffffffffffffffffffffffff167f17307eab39ab6107e8899845ad3d59bd9653f200f220920489ca2b5937696c3183604051610af3919061218f565b60405180910390a35050565b60068054610b0c906125c4565b80601f0160208091040260200160405190810160405280929190818152602001828054610b38906125c4565b8015610b855780601f10610b5a57610100808354040283529160200191610b85565b820191906000526020600020905b815481529060010190602001808311610b6857829003601f168201915b505050505081565b610ba78282604051806020016040528060008152506107a8565b5050565b610bb53383610f5d565b610bf4576040517f08c379a0000000000000000000000000000000000000000000000000000000008152600401610beb9061232c565b60405180910390fd5b610c00848484846115a2565b50505050565b6060610c1182610e39565b610c50576040517f08c379a0000000000000000000000000000000000000000000000000000000008152600401610c47906122ec565b60405180910390fd5b6000610c5a6115fe565b90506000815111610c7a5760405180602001604052806000815250610ca5565b80610c848461161e565b604051602001610c95929190612104565b6040516020818303038152906040525b915050919050565b60048054610cba906125c4565b80601f0160208091040260200160405190810160405280929190818152602001828054610ce6906125c4565b8015610d335780601f10610d0857610100808354040283529160200191610d33565b820191906000526020600020905b815481529060010190602001808311610d1657829003601f168201915b505050505081565b6000600360008473ffffffffffffffffffffffffffffffffffffffff1673ffffffffffffffffffffffffffffffffffffffff16815260200190815260200160002060008373ffffffffffffffffffffffffffffffffffffffff1673ffffffffffffffffffffffffffffffffffffffff16815260200190815260200160002060009054906101000a900460ff16905092915050565b60007f01ffc9a7000000000000000000000000000000000000000000000000000000007bffffffffffffffffffffffffffffffffffffffffffffffffffffffff1916827bffffffffffffffffffffffffffffffffffffffffffffffffffffffff1916149050919050565b60008073ffffffffffffffffffffffffffffffffffffffff1660008084815260200190815260200160002060009054906101000a900473ffffffffffffffffffffffffffffffffffffffff1673ffffffffffffffffffffffffffffffffffffffff1614159050919050565b816002600083815260200190815260200160002060006101000a81548173ffffffffffffffffffffffffffffffffffffffff021916908373ffffffffffffffffffffffffffffffffffffffff160217905550808273ffffffffffffffffffffffffffffffffffffffff16610f17836106f7565b73ffffffffffffffffffffffffffffffffffffffff167f8c5be1e5ebec7d5bd14f71427d1e84f3dd0314c0f7b2291e5b200ac8c7c3b92560405160405180910390a45050565b6000610f68826106f7565b73ffffffffffffffffffffffffffffffffffffffff168373ffffffffffffffffffffffffffffffffffffffff161480610fd45750610fa5826104dc565b73ffffffffffffffffffffffffffffffffffffffff168373ffffffffffffffffffffffffffffffffffffffff16145b80610fed5750610fec610fe6836106f7565b84610d3b565b5b905092915050565b8273ffffffffffffffffffffffffffffffffffffffff16611015826106f7565b73ffffffffffffffffffffffffffffffffffffffff161461106b576040517f08c379a0000000000000000000000000000000000000000000000000000000008152600401611062906121cc565b60405180910390fd5b600073ffffffffffffffffffffffffffffffffffffffff168273ffffffffffffffffffffffffffffffffffffffff1614156110db576040517f08c379a00000000000000000000000000000000000000000000000000000000081526004016110d29061222c565b60405180910390fd5b60018060008573ffffffffffffffffffffffffffffffffffffffff1673ffffffffffffffffffffffffffffffffffffffff168152602001908152602001600020600082825461112a91906124cd565b9250508190555060018060008473ffffffffffffffffffffffffffffffffffffffff1673ffffffffffffffffffffffffffffffffffffffff16815260200190815260200160002060008282546111809190612446565b925050819055508160008083815260200190815260200160002060006101000a81548173ffffffffffffffffffffffffffffffffffffffff021916908373ffffffffffffffffffffffffffffffffffffffff160217905550808273ffffffffffffffffffffffffffffffffffffffff168473ffffffffffffffffffffffffffffffffffffffff167fddf252ad1be2c89b69c2b068fc378daa952ba7f163c4a11628f55a4df523b3ef60405160405180910390a4505050565b600073ffffffffffffffffffffffffffffffffffffffff168273ffffffffffffffffffffffffffffffffffffffff1614156112a8576040517f08c379a000000000000000000000000000000000000000000000000000000000815260040161129f9061230c565b60405180910390fd5b6112b181610e39565b156112f1576040517f08c379a00000000000000000000000000000000000000000000000000000000081526004016112e89061228c565b60405180910390fd5b6112fd600083836117cb565b60018060008473ffffffffffffffffffffffffffffffffffffffff1673ffffffffffffffffffffffffffffffffffffffff168152602001908152602001600020600082825461134c9190612446565b925050819055508160008083815260200190815260200160002060006101000a81548173ffffffffffffffffffffffffffffffffffffffff021916908373ffffffffffffffffffffffffffffffffffffffff160217905550808273ffffffffffffffffffffffffffffffffffffffff16600073ffffffffffffffffffffffffffffffffffffffff167fddf252ad1be2c89b69c2b068fc378daa952ba7f163c4a11628f55a4df523b3ef60405160405180910390a45050565b600061140f846117d0565b15611571578373ffffffffffffffffffffffffffffffffffffffff1663150b7a02338786866040518563ffffffff1660e01b81526004016114539493929190612143565b602060405180830381600087803b15801561146d57600080fd5b505af192505050801561149e57506040513d601f19601f8201168201806040525081019061149b9190611af1565b60015b611521573d80600081146114ce576040519150601f19603f3d011682016040523d82523d6000602084013e6114d3565b606091505b50600081511415611519576040517f08c379a00000000000000000000000000000000000000000000000000000000081526004016115109061220c565b60405180910390fd5b805181602001fd5b63150b7a0260e01b7bffffffffffffffffffffffffffffffffffffffffffffffffffffffff1916817bffffffffffffffffffffffffffffffffffffffffffffffffffffffff191614915050611576565b600190505b949350505050565b600081600001549050919050565b6001816000016000828254019250508190555050565b6115ad848484610ff5565b6115b984848484611404565b6115f8576040517f08c379a00000000000000000000000000000000000000000000000000000000081526004016115ef9061220c565b60405180910390fd5b50505050565b60606040518060600160405280602f815260200161279a602f9139905090565b60606000821415611666576040518060400160405280600181526020017f300000000000000000000000000000000000000000000000000000000000000081525090506117c6565b600082905060005b60008214611698578080611681906125f6565b915050600a82611691919061249c565b915061166e565b60008167ffffffffffffffff8111156116da577f4e487b7100000000000000000000000000000000000000000000000000000000600052604160045260246000fd5b6040519080825280601f01601f19166020018201604052801561170c5781602001600182028036833780820191505090505b5090505b600085146117bf5760018261172591906124cd565b9150600a85611734919061263f565b60306117409190612446565b60f81b81838151811061177c577f4e487b7100000000000000000000000000000000000000000000000000000000600052603260045260246000fd5b60200101907effffffffffffffffffffffffffffffffffffffffffffffffffffffffffffff1916908160001a905350600a856117b8919061249c565b9450611710565b8093505050505b919050565b505050565b600080823b905060008163ffffffff1611915050919050565b60006117fc6117f7846123d3565b6123a2565b90508281526020810184848401111561181457600080fd5b61181f848285612582565b509392505050565b6000813590506118368161273d565b92915050565b60008135905061184b81612754565b92915050565b6000813590506118608161276b565b92915050565b6000815190506118758161276b565b92915050565b600082601f83011261188c57600080fd5b813561189c8482602086016117e9565b91505092915050565b6000813590506118b481612782565b92915050565b6000602082840312156118cc57600080fd5b60006118da84828501611827565b91505092915050565b600080604083850312156118f657600080fd5b600061190485828601611827565b925050602061191585828601611827565b9150509250929050565b60008060006060848603121561193457600080fd5b600061194286828701611827565b935050602061195386828701611827565b9250506040611964868287016118a5565b9150509250925092565b6000806000806080858703121561198457600080fd5b600061199287828801611827565b94505060206119a387828801611827565b93505060406119b4878288016118a5565b925050606085013567ffffffffffffffff8111156119d157600080fd5b6119dd8782880161187b565b91505092959194509250565b600080604083850312156119fc57600080fd5b6000611a0a85828601611827565b9250506020611a1b8582860161183c565b9150509250929050565b60008060408385031215611a3857600080fd5b6000611a4685828601611827565b9250506020611a57858286016118a5565b9150509250929050565b600080600060608486031215611a7657600080fd5b6000611a8486828701611827565b9350506020611a95868287016118a5565b925050604084013567ffffffffffffffff811115611ab257600080fd5b611abe8682870161187b565b9150509250925092565b600060208284031215611ada57600080fd5b6000611ae884828501611851565b91505092915050565b600060208284031215611b0357600080fd5b6000611b1184828501611866565b91505092915050565b600060208284031215611b2c57600080fd5b6000611b3a848285016118a5565b91505092915050565b611b4c81612501565b82525050565b611b5b81612513565b82525050565b6000611b6c82612403565b611b768185612419565b9350611b86818560208601612591565b611b8f8161272c565b840191505092915050565b6000611ba58261240e565b611baf818561242a565b9350611bbf818560208601612591565b611bc88161272c565b840191505092915050565b6000611bde8261240e565b611be8818561243b565b9350611bf8818560208601612591565b80840191505092915050565b6000611c1160418361242a565b91507f455243373231204552523a2066726f6d206973206e6f7420746865206f776e6560008301527f72206f662074686520746f6b656e206f7220697420646f65736e74206578697360208301527f74000000000000000000000000000000000000000000000000000000000000006040830152606082019050919050565b6000611c9d604d8361242a565b91507f455243373231204552523a20796f7520617265206e6f7420746865206f776e6560008301527f72206f7220796f7520646f6e742068617665207065726d697373696f6e20666f60208301527f72207468697320616374696f6e000000000000000000000000000000000000006040830152606082019050919050565b6000611d2960368361242a565b91507f455243373231204552523a205472616e7366657220746f206e6f6e204552433760008301527f3231526563656976657220696d706c656d656e746572000000000000000000006020830152604082019050919050565b6000611d8f602a8361242a565b91507f455243373231204552523a2063616e6e6f742073656e6420746f6b656e20746f60008301527f20616464726573732030000000000000000000000000000000000000000000006020830152604082019050919050565b6000611df560208361242a565b91507f43616e277420636865636b2062616c616e6365206f6620302d616464726573736000830152602082019050919050565b6000611e35601e8361242a565b91507f455243373231204552523a20546f6b656e20646f65736e7420657869737400006000830152602082019050919050565b6000611e7560208361242a565b91507f455243373231204552523a20546f6b656e20616c7265616479206578697374736000830152602082019050919050565b6000611eb560298361242a565b91507f455243373231204552523a2044657374696e6174696f6e206d7573742062652060008301527f646966666572656e7400000000000000000000000000000000000000000000006020830152604082019050919050565b6000611f1b60228361242a565b91507f455243373231204552523a20746f6b656e496420646f6573206e6f742065786960008301527f73740000000000000000000000000000000000000000000000000000000000006020830152604082019050919050565b6000611f81602f8361242a565b91507f4552433732314d657461646174613a2055524920717565727920666f72206e6f60008301527f6e6578697374656e7420746f6b656e00000000000000000000000000000000006020830152604082019050919050565b6000611fe7601d8361242a565b91507f455243373231204552523a204d696e7420746f203020616464726573730000006000830152602082019050919050565b6000612027603f8361242a565b91507f455243373231204552523a20596f75206e656564207065726d697373696f6e2060008301527f6f72206f776e65727368697020666f722074686973206f7065726174696f6e006020830152604082019050919050565b600061208d603c8361242a565b91507f455243373231204552523a2044657374696e6174696f6e206d7573742062652060008301527f646966666572656e742061646472657373207468616e206f776e6572000000006020830152604082019050919050565b6120ef8161256b565b82525050565b6120fe81612575565b82525050565b60006121108285611bd3565b915061211c8284611bd3565b91508190509392505050565b600060208201905061213d6000830184611b43565b92915050565b60006080820190506121586000830187611b43565b6121656020830186611b43565b61217260408301856120e6565b81810360608301526121848184611b61565b905095945050505050565b60006020820190506121a46000830184611b52565b92915050565b600060208201905081810360008301526121c48184611b9a565b905092915050565b600060208201905081810360008301526121e581611c04565b9050919050565b6000602082019050818103600083015261220581611c90565b9050919050565b6000602082019050818103600083015261222581611d1c565b9050919050565b6000602082019050818103600083015261224581611d82565b9050919050565b6000602082019050818103600083015261226581611de8565b9050919050565b6000602082019050818103600083015261228581611e28565b9050919050565b600060208201905081810360008301526122a581611e68565b9050919050565b600060208201905081810360008301526122c581611ea8565b9050919050565b600060208201905081810360008301526122e581611f0e565b9050919050565b6000602082019050818103600083015261230581611f74565b9050919050565b6000602082019050818103600083015261232581611fda565b9050919050565b600060208201905081810360008301526123458161201a565b9050919050565b6000602082019050818103600083015261236581612080565b9050919050565b600060208201905061238160008301846120e6565b92915050565b600060208201905061239c60008301846120f5565b92915050565b6000604051905081810181811067ffffffffffffffff821117156123c9576123c86126fd565b5b8060405250919050565b600067ffffffffffffffff8211156123ee576123ed6126fd565b5b601f19601f8301169050602081019050919050565b600081519050919050565b600081519050919050565b600082825260208201905092915050565b600082825260208201905092915050565b600081905092915050565b60006124518261256b565b915061245c8361256b565b9250827fffffffffffffffffffffffffffffffffffffffffffffffffffffffffffffffff0382111561249157612490612670565b5b828201905092915050565b60006124a78261256b565b91506124b28361256b565b9250826124c2576124c161269f565b5b828204905092915050565b60006124d88261256b565b91506124e38361256b565b9250828210156124f6576124f5612670565b5b828203905092915050565b600061250c8261254b565b9050919050565b60008115159050919050565b60007fffffffff0000000000000000000000000000000000000000000000000000000082169050919050565b600073ffffffffffffffffffffffffffffffffffffffff82169050919050565b6000819050919050565b600060ff82169050919050565b82818337600083830152505050565b60005b838110156125af578082015181840152602081019050612594565b838111156125be576000848401525b50505050565b600060028204905060018216806125dc57607f821691505b602082108114156125f0576125ef6126ce565b5b50919050565b60006126018261256b565b91507fffffffffffffffffffffffffffffffffffffffffffffffffffffffffffffffff82141561263457612633612670565b5b600182019050919050565b600061264a8261256b565b91506126558361256b565b9250826126655761266461269f565b5b828206905092915050565b7f4e487b7100000000000000000000000000000000000000000000000000000000600052601160045260246000fd5b7f4e487b7100000000000000000000000000000000000000000000000000000000600052601260045260246000fd5b7f4e487b7100000000000000000000000000000000000000000000000000000000600052602260045260246000fd5b7f4e487b7100000000000000000000000000000000000000000000000000000000600052604160045260246000fd5b6000601f19601f8301169050919050565b61274681612501565b811461275157600080fd5b50565b61275d81612513565b811461276857600080fd5b50565b6127748161251f565b811461277f57600080fd5b50565b61278b8161256b565b811461279657600080fd5b5056fe687474703a2f2f313233392d3139302d31382d3135342d34362e6e67726f6b2e696f2f6170692f6572633732312f31a2646970667358221220da384a8ce0ed63077904e1c7ec53b041ad6c544a437319dbd7b3ac5a9617f83e64736f6c63430008000033",
  "linkReferences": {},
  "deployedLinkReferences": {}
}