{
  "_format": "hh-sol-artifact-1",
  "contractName": "Vinylmations",
  "sourceName": "contracts/Vinylmations.sol",
  "abi": [
    {
      "inputs": [],
      "stateMutability": "nonpayable",
      "type": "constructor"
    },
    {
      "anonymous": false,
      "inputs": [
        {
          "indexed": true,
          "internalType": "address",
          "name": "_owner",
          "type": "address"
        },
        {
          "indexed": true,
          "internalType": "address",
          "name": "_approved",
          "type": "address"
        },
        {
          "indexed": true,
          "internalType": "uint256",
          "name": "_tokenId",
          "type": "uint256"
        }
      ],
      "name": "Approval",
      "type": "event"
    },
    {
      "anonymous": false,
      "inputs": [
        {
          "indexed": true,
          "internalType": "address",
          "name": "_owner",
          "type": "address"
        },
        {
          "indexed": true,
          "internalType": "address",
          "name": "_operator",
          "type": "address"
        },
        {
          "indexed": false,
          "internalType": "bool",
          "name": "_approved",
          "type": "bool"
        }
      ],
      "name": "ApprovalForAll",
      "type": "event"
    },
    {
      "anonymous": false,
      "inputs": [
        {
          "indexed": true,
          "internalType": "address",
          "name": "_from",
          "type": "address"
        },
        {
          "indexed": true,
          "internalType": "address",
          "name": "_to",
          "type": "address"
        },
        {
          "indexed": true,
          "internalType": "uint256",
          "name": "_tokenId",
          "type": "uint256"
        }
      ],
      "name": "Transfer",
      "type": "event"
    },
    {
      "inputs": [],
      "name": "_name",
      "outputs": [
        {
          "internalType": "string",
          "name": "",
          "type": "string"
        }
      ],
      "stateMutability": "view",
      "type": "function"
    },
    {
      "inputs": [
        {
          "internalType": "address",
          "name": "to",
          "type": "address"
        },
        {
          "internalType": "uint256",
          "name": "tokenId",
          "type": "uint256"
        },
        {
          "internalType": "bytes",
          "name": "_data",
          "type": "bytes"
        }
      ],
      "name": "_safeMint",
      "outputs": [],
      "stateMutability": "nonpayable",
      "type": "function"
    },
    {
      "inputs": [
        {
          "internalType": "address",
          "name": "to",
          "type": "address"
        },
        {
          "internalType": "uint256",
          "name": "tokenId",
          "type": "uint256"
        }
      ],
      "name": "_safeMint",
      "outputs": [],
      "stateMutability": "nonpayable",
      "type": "function"
    },
    {
      "inputs": [],
      "name": "_symbol",
      "outputs": [
        {
          "internalType": "string",
          "name": "",
          "type": "string"
        }
      ],
      "stateMutability": "view",
      "type": "function"
    },
    {
      "inputs": [
        {
          "internalType": "address",
          "name": "to",
          "type": "address"
        },
        {
          "internalType": "uint256",
          "name": "tokenId",
          "type": "uint256"
        }
      ],
      "name": "approve",
      "outputs": [],
      "stateMutability": "nonpayable",
      "type": "function"
    },
    {
      "inputs": [
        {
          "internalType": "address",
          "name": "_owner",
          "type": "address"
        }
      ],
      "name": "balanceOf",
      "outputs": [
        {
          "internalType": "uint256",
          "name": "",
          "type": "uint256"
        }
      ],
      "stateMutability": "view",
      "type": "function"
    },
    {
      "inputs": [
        {
          "internalType": "uint256",
          "name": "tokenId",
          "type": "uint256"
        }
      ],
      "name": "getApproved",
      "outputs": [
        {
          "internalType": "address",
          "name": "",
          "type": "address"
        }
      ],
      "stateMutability": "view",
      "type": "function"
    },
    {
      "inputs": [
        {
          "internalType": "address",
          "name": "owner",
          "type": "address"
        },
        {
          "internalType": "address",
          "name": "operator",
          "type": "address"
        }
      ],
      "name": "isApprovedForAll",
      "outputs": [
        {
          "internalType": "bool",
          "name": "",
          "type": "bool"
        }
      ],
      "stateMutability": "view",
      "type": "function"
    },
    {
      "inputs": [
        {
          "internalType": "address",
          "name": "to",
          "type": "address"
        }
      ],
      "name": "mint",
      "outputs": [
        {
          "internalType": "uint256",
          "name": "",
          "type": "uint256"
        }
      ],
      "stateMutability": "nonpayable",
      "type": "function"
    },
    {
      "inputs": [
        {
          "internalType": "address",
          "name": "recipient",
          "type": "address"
        },
        {
          "internalType": "string",
          "name": "tokenURI",
          "type": "string"
        }
      ],
      "name": "mintNFT",
      "outputs": [
        {
          "internalType": "uint256",
          "name": "",
          "type": "uint256"
        }
      ],
      "stateMutability": "nonpayable",
      "type": "function"
    },
    {
      "inputs": [],
      "name": "name",
      "outputs": [
        {
          "internalType": "string",
          "name": "",
          "type": "string"
        }
      ],
      "stateMutability": "view",
      "type": "function"
    },
    {
      "inputs": [
        {
          "internalType": "uint256",
          "name": "tokenId",
          "type": "uint256"
        }
      ],
      "name": "ownerOf",
      "outputs": [
        {
          "internalType": "address",
          "name": "_owner",
          "type": "address"
        }
      ],
      "stateMutability": "view",
      "type": "function"
    },
    {
      "inputs": [
        {
          "internalType": "address",
          "name": "from",
          "type": "address"
        },
        {
          "internalType": "address",
          "name": "to",
          "type": "address"
        },
        {
          "internalType": "uint256",
          "name": "tokenId",
          "type": "uint256"
        }
      ],
      "name": "safeTransferFrom",
      "outputs": [],
      "stateMutability": "nonpayable",
      "type": "function"
    },
    {
      "inputs": [
        {
          "internalType": "address",
          "name": "from",
          "type": "address"
        },
        {
          "internalType": "address",
          "name": "to",
          "type": "address"
        },
        {
          "internalType": "uint256",
          "name": "tokenId",
          "type": "uint256"
        },
        {
          "internalType": "bytes",
          "name": "_data",
          "type": "bytes"
        }
      ],
      "name": "safeTransferFrom",
      "outputs": [],
      "stateMutability": "nonpayable",
      "type": "function"
    },
    {
      "inputs": [
        {
          "internalType": "address",
          "name": "operator",
          "type": "address"
        },
        {
          "internalType": "bool",
          "name": "approved",
          "type": "bool"
        }
      ],
      "name": "setApprovalForAll",
      "outputs": [],
      "stateMutability": "nonpayable",
      "type": "function"
    },
    {
      "inputs": [
        {
          "internalType": "bytes4",
          "name": "interfaceId",
          "type": "bytes4"
        }
      ],
      "name": "supportsInterface",
      "outputs": [
        {
          "internalType": "bool",
          "name": "",
          "type": "bool"
        }
      ],
      "stateMutability": "view",
      "type": "function"
    },
    {
      "inputs": [],
      "name": "symbol",
      "outputs": [
        {
          "internalType": "string",
          "name": "",
          "type": "string"
        }
      ],
      "stateMutability": "view",
      "type": "function"
    },
    {
      "inputs": [
        {
          "internalType": "uint256",
          "name": "tokenId",
          "type": "uint256"
        }
      ],
      "name": "tokenURI",
      "outputs": [
        {
          "internalType": "string",
          "name": "",
          "type": "string"
        }
      ],
      "stateMutability": "view",
      "type": "function"
    },
    {
      "inputs": [
        {
          "internalType": "address",
          "name": "from",
          "type": "address"
        },
        {
          "internalType": "address",
          "name": "to",
          "type": "address"
        },
        {
          "internalType": "uint256",
          "name": "tokenId",
          "type": "uint256"
        }
      ],
      "name": "transferFrom",
      "outputs": [],
      "stateMutability": "nonpayable",
      "type": "function"
    }
  ],
  "bytecode": "0x60806040523480156200001157600080fd5b506040518060400160405280600c81526020017f56696e796c6d6174696f6e7300000000000000000000000000000000000000008152506040518060400160405280600381526020017f564e4d0000000000000000000000000000000000000000000000000000000000815250816005908051906020019062000096929190620000b8565b508060069080519060200190620000af929190620000b8565b505050620001cd565b828054620000c69062000168565b90600052602060002090601f016020900481019282620000ea576000855562000136565b82601f106200010557805160ff191683800117855562000136565b8280016001018555821562000136579182015b828111156200013557825182559160200191906001019062000118565b5b50905062000145919062000149565b5090565b5b80821115620001645760008160009055506001016200014a565b5090565b600060028204905060018216806200018157607f821691505b602082108114156200019857620001976200019e565b5b50919050565b7f4e487b7100000000000000000000000000000000000000000000000000000000600052602260045260246000fd5b612a8b80620001dd6000396000f3fe608060405234801561001057600080fd5b50600436106101215760003560e01c806370a08231116100ad578063b88d4fde11610071578063b88d4fde14610318578063c87b56dd14610334578063d28d885214610364578063e985e9c514610382578063eacabe14146103b257610121565b806370a082311461027457806395d89b41146102a4578063a22cb465146102c2578063b09f1266146102de578063b3e1c718146102fc57610121565b806323b872dd116100f457806323b872dd146101c057806342842e0e146101dc5780636352211e146101f85780636a4f832b146102285780636a6278421461024457610121565b806301ffc9a71461012657806306fdde0314610156578063081812fc14610174578063095ea7b3146101a4575b600080fd5b610140600480360381019061013b9190611cd2565b6103e2565b60405161014d91906123f0565b60405180910390f35b61015e61045c565b60405161016b919061240b565b60405180910390f35b61018e60048036038101906101899190611d24565b6104ee565b60405161019b9190612389565b60405180910390f35b6101be60048036038101906101b99190611c2f565b610573565b005b6101da60048036038101906101d59190611ad5565b61067d565b005b6101f660048036038101906101f19190611ad5565b6106d6565b005b610212600480360381019061020d9190611d24565b6106f6565b60405161021f9190612389565b60405180910390f35b610242600480360381019061023d9190611c6b565b6107a7565b005b61025e60048036038101906102599190611a70565b610802565b60405161026b91906125ed565b60405180910390f35b61028e60048036038101906102899190611a70565b610848565b60405161029b91906125ed565b60405180910390f35b6102ac610900565b6040516102b9919061240b565b60405180910390f35b6102dc60048036038101906102d79190611b9f565b610992565b005b6102e6610afe565b6040516102f3919061240b565b60405180910390f35b61031660048036038101906103119190611c2f565b610b8c565b005b610332600480360381019061032d9190611b24565b610baa565b005b61034e60048036038101906103499190611d24565b610c05565b60405161035b919061240b565b60405180910390f35b61036c610cac565b604051610379919061240b565b60405180910390f35b61039c60048036038101906103979190611a99565b610d3a565b6040516103a991906123f0565b60405180910390f35b6103cc60048036038101906103c79190611bdb565b610dce565b6040516103d991906125ed565b60405180910390f35b60007f80ac58cd000000000000000000000000000000000000000000000000000000007bffffffffffffffffffffffffffffffffffffffffffffffffffffffff1916827bffffffffffffffffffffffffffffffffffffffffffffffffffffffff19161480610455575061045482610e06565b5b9050919050565b60606005805461046b9061284d565b80601f01602080910402602001604051908101604052809291908181526020018280546104979061284d565b80156104e45780601f106104b9576101008083540402835291602001916104e4565b820191906000526020600020905b8154815290600101906020018083116104c757829003601f168201915b5050505050905090565b60006104f982610e70565b610538576040517f08c379a000000000000000000000000000000000000000000000000000000000815260040161052f906124cd565b60405180910390fd5b6002600083815260200190815260200160002060009054906101000a900473ffffffffffffffffffffffffffffffffffffffff169050919050565b600061057e826106f6565b90508073ffffffffffffffffffffffffffffffffffffffff168373ffffffffffffffffffffffffffffffffffffffff1614156105ef576040517f08c379a00000000000000000000000000000000000000000000000000000000081526004016105e6906125cd565b60405180910390fd5b8073ffffffffffffffffffffffffffffffffffffffff163373ffffffffffffffffffffffffffffffffffffffff16148061062f575061062e8133610d3a565b5b61066e576040517f08c379a00000000000000000000000000000000000000000000000000000000081526004016106659061244d565b60405180910390fd5b6106788383610edb565b505050565b6106873382610f94565b6106c6576040517f08c379a00000000000000000000000000000000000000000000000000000000081526004016106bd906125ad565b60405180910390fd5b6106d183838361102c565b505050565b6106f183838360405180602001604052806000815250610baa565b505050565b60008060008084815260200190815260200160002060009054906101000a900473ffffffffffffffffffffffffffffffffffffffff169050600073ffffffffffffffffffffffffffffffffffffffff168173ffffffffffffffffffffffffffffffffffffffff16141561079e576040517f08c379a00000000000000000000000000000000000000000000000000000000081526004016107959061254d565b60405180910390fd5b80915050919050565b6107b1838361126f565b6107be600084848461143b565b6107fd576040517f08c379a00000000000000000000000000000000000000000000000000000000081526004016107f49061246d565b60405180910390fd5b505050565b6000600361081060076115b5565b1061081a57600080fd5b61082460076115c3565b6108378261083260076115b5565b610b8c565b61084160076115b5565b9050919050565b60008073ffffffffffffffffffffffffffffffffffffffff168273ffffffffffffffffffffffffffffffffffffffff1614156108b9576040517f08c379a00000000000000000000000000000000000000000000000000000000081526004016108b0906124ad565b60405180910390fd5b600160008373ffffffffffffffffffffffffffffffffffffffff1673ffffffffffffffffffffffffffffffffffffffff168152602001908152602001600020549050919050565b60606006805461090f9061284d565b80601f016020809104026020016040519081016040528092919081815260200182805461093b9061284d565b80156109885780601f1061095d57610100808354040283529160200191610988565b820191906000526020600020905b81548152906001019060200180831161096b57829003601f168201915b5050505050905090565b8173ffffffffffffffffffffffffffffffffffffffff163373ffffffffffffffffffffffffffffffffffffffff161415610a01576040517f08c379a00000000000000000000000000000000000000000000000000000000081526004016109f89061252d565b60405180910390fd5b80600360003373ffffffffffffffffffffffffffffffffffffffff1673ffffffffffffffffffffffffffffffffffffffff16815260200190815260200160002060008473ffffffffffffffffffffffffffffffffffffffff1673ffffffffffffffffffffffffffffffffffffffff16815260200190815260200160002060006101000a81548160ff0219169083151502179055508173ffffffffffffffffffffffffffffffffffffffff163373ffffffffffffffffffffffffffffffffffffffff167f17307eab39ab6107e8899845ad3d59bd9653f200f220920489ca2b5937696c3183604051610af291906123f0565b60405180910390a35050565b60068054610b0b9061284d565b80601f0160208091040260200160405190810160405280929190818152602001828054610b379061284d565b8015610b845780601f10610b5957610100808354040283529160200191610b84565b820191906000526020600020905b815481529060010190602001808311610b6757829003601f168201915b505050505081565b610ba68282604051806020016040528060008152506107a7565b5050565b610bb43383610f94565b610bf3576040517f08c379a0000000000000000000000000000000000000000000000000000000008152600401610bea906125ad565b60405180910390fd5b610bff848484846115d9565b50505050565b6060610c1082610e70565b610c4f576040517f08c379a0000000000000000000000000000000000000000000000000000000008152600401610c469061256d565b60405180910390fd5b6000610c59611635565b90506000815111610c795760405180602001604052806000815250610ca4565b80610c8384611655565b604051602001610c94929190612365565b6040516020818303038152906040525b915050919050565b60058054610cb99061284d565b80601f0160208091040260200160405190810160405280929190818152602001828054610ce59061284d565b8015610d325780601f10610d0757610100808354040283529160200191610d32565b820191906000526020600020905b815481529060010190602001808311610d1557829003601f168201915b505050505081565b6000600360008473ffffffffffffffffffffffffffffffffffffffff1673ffffffffffffffffffffffffffffffffffffffff16815260200190815260200160002060008373ffffffffffffffffffffffffffffffffffffffff1673ffffffffffffffffffffffffffffffffffffffff16815260200190815260200160002060009054906101000a900460ff16905092915050565b6000610dda60076115c3565b6000610de660076115b5565b9050610df2848261126f565b610dfc8184611802565b8091505092915050565b60007f01ffc9a7000000000000000000000000000000000000000000000000000000007bffffffffffffffffffffffffffffffffffffffffffffffffffffffff1916827bffffffffffffffffffffffffffffffffffffffffffffffffffffffff1916149050919050565b60008073ffffffffffffffffffffffffffffffffffffffff1660008084815260200190815260200160002060009054906101000a900473ffffffffffffffffffffffffffffffffffffffff1673ffffffffffffffffffffffffffffffffffffffff1614159050919050565b816002600083815260200190815260200160002060006101000a81548173ffffffffffffffffffffffffffffffffffffffff021916908373ffffffffffffffffffffffffffffffffffffffff160217905550808273ffffffffffffffffffffffffffffffffffffffff16610f4e836106f6565b73ffffffffffffffffffffffffffffffffffffffff167f8c5be1e5ebec7d5bd14f71427d1e84f3dd0314c0f7b2291e5b200ac8c7c3b92560405160405180910390a45050565b6000610f9f826106f6565b73ffffffffffffffffffffffffffffffffffffffff168373ffffffffffffffffffffffffffffffffffffffff16148061100b5750610fdc826104ee565b73ffffffffffffffffffffffffffffffffffffffff168373ffffffffffffffffffffffffffffffffffffffff16145b80611024575061102361101d836106f6565b84610d3a565b5b905092915050565b8273ffffffffffffffffffffffffffffffffffffffff1661104c826106f6565b73ffffffffffffffffffffffffffffffffffffffff16146110a2576040517f08c379a00000000000000000000000000000000000000000000000000000000081526004016110999061242d565b60405180910390fd5b600073ffffffffffffffffffffffffffffffffffffffff168273ffffffffffffffffffffffffffffffffffffffff161415611112576040517f08c379a00000000000000000000000000000000000000000000000000000000081526004016111099061248d565b60405180910390fd5b60018060008573ffffffffffffffffffffffffffffffffffffffff1673ffffffffffffffffffffffffffffffffffffffff16815260200190815260200160002060008282546111619190612763565b9250508190555060018060008473ffffffffffffffffffffffffffffffffffffffff1673ffffffffffffffffffffffffffffffffffffffff16815260200190815260200160002060008282546111b791906126dc565b925050819055508160008083815260200190815260200160002060006101000a81548173ffffffffffffffffffffffffffffffffffffffff021916908373ffffffffffffffffffffffffffffffffffffffff160217905550808273ffffffffffffffffffffffffffffffffffffffff168473ffffffffffffffffffffffffffffffffffffffff167fddf252ad1be2c89b69c2b068fc378daa952ba7f163c4a11628f55a4df523b3ef60405160405180910390a4505050565b600073ffffffffffffffffffffffffffffffffffffffff168273ffffffffffffffffffffffffffffffffffffffff1614156112df576040517f08c379a00000000000000000000000000000000000000000000000000000000081526004016112d69061258d565b60405180910390fd5b6112e881610e70565b15611328576040517f08c379a000000000000000000000000000000000000000000000000000000000815260040161131f9061250d565b60405180910390fd5b61133460008383611876565b60018060008473ffffffffffffffffffffffffffffffffffffffff1673ffffffffffffffffffffffffffffffffffffffff168152602001908152602001600020600082825461138391906126dc565b925050819055508160008083815260200190815260200160002060006101000a81548173ffffffffffffffffffffffffffffffffffffffff021916908373ffffffffffffffffffffffffffffffffffffffff160217905550808273ffffffffffffffffffffffffffffffffffffffff16600073ffffffffffffffffffffffffffffffffffffffff167fddf252ad1be2c89b69c2b068fc378daa952ba7f163c4a11628f55a4df523b3ef60405160405180910390a45050565b60006114468461187b565b156115a8578373ffffffffffffffffffffffffffffffffffffffff1663150b7a02338786866040518563ffffffff1660e01b815260040161148a94939291906123a4565b602060405180830381600087803b1580156114a457600080fd5b505af19250505080156114d557506040513d601f19601f820116820180604052508101906114d29190611cfb565b60015b611558573d8060008114611505576040519150601f19603f3d011682016040523d82523d6000602084013e61150a565b606091505b50600081511415611550576040517f08c379a00000000000000000000000000000000000000000000000000000000081526004016115479061246d565b60405180910390fd5b805181602001fd5b63150b7a0260e01b7bffffffffffffffffffffffffffffffffffffffffffffffffffffffff1916817bffffffffffffffffffffffffffffffffffffffffffffffffffffffff1916149150506115ad565b600190505b949350505050565b600081600001549050919050565b6001816000016000828254019250508190555050565b6115e484848461102c565b6115f08484848461143b565b61162f576040517f08c379a00000000000000000000000000000000000000000000000000000000081526004016116269061246d565b60405180910390fd5b50505050565b6060604051806060016040528060338152602001612a2360339139905090565b6060600082141561169d576040518060400160405280600181526020017f300000000000000000000000000000000000000000000000000000000000000081525090506117fd565b600082905060005b600082146116cf5780806116b89061287f565b915050600a826116c89190612732565b91506116a5565b60008167ffffffffffffffff811115611711577f4e487b7100000000000000000000000000000000000000000000000000000000600052604160045260246000fd5b6040519080825280601f01601f1916602001820160405280156117435781602001600182028036833780820191505090505b5090505b600085146117f65760018261175c9190612763565b9150600a8561176b91906128c8565b603061177791906126dc565b60f81b8183815181106117b3577f4e487b7100000000000000000000000000000000000000000000000000000000600052603260045260246000fd5b60200101907effffffffffffffffffffffffffffffffffffffffffffffffffffffffffffff1916908160001a905350600a856117ef9190612732565b9450611747565b8093505050505b919050565b61180b82610e70565b61184a576040517f08c379a0000000000000000000000000000000000000000000000000000000008152600401611841906124ed565b60405180910390fd5b80600460008481526020019081526020016000209080519060200190611871929190611894565b505050565b505050565b600080823b905060008163ffffffff1611915050919050565b8280546118a09061284d565b90600052602060002090601f0160209004810192826118c25760008555611909565b82601f106118db57805160ff1916838001178555611909565b82800160010185558215611909579182015b828111156119085782518255916020019190600101906118ed565b5b509050611916919061191a565b5090565b5b8082111561193357600081600090555060010161191b565b5090565b600061194a61194584612639565b612608565b90508281526020810184848401111561196257600080fd5b61196d84828561280b565b509392505050565b600061198861198384612669565b612608565b9050828152602081018484840111156119a057600080fd5b6119ab84828561280b565b509392505050565b6000813590506119c2816129c6565b92915050565b6000813590506119d7816129dd565b92915050565b6000813590506119ec816129f4565b92915050565b600081519050611a01816129f4565b92915050565b600082601f830112611a1857600080fd5b8135611a28848260208601611937565b91505092915050565b600082601f830112611a4257600080fd5b8135611a52848260208601611975565b91505092915050565b600081359050611a6a81612a0b565b92915050565b600060208284031215611a8257600080fd5b6000611a90848285016119b3565b91505092915050565b60008060408385031215611aac57600080fd5b6000611aba858286016119b3565b9250506020611acb858286016119b3565b9150509250929050565b600080600060608486031215611aea57600080fd5b6000611af8868287016119b3565b9350506020611b09868287016119b3565b9250506040611b1a86828701611a5b565b9150509250925092565b60008060008060808587031215611b3a57600080fd5b6000611b48878288016119b3565b9450506020611b59878288016119b3565b9350506040611b6a87828801611a5b565b925050606085013567ffffffffffffffff811115611b8757600080fd5b611b9387828801611a07565b91505092959194509250565b60008060408385031215611bb257600080fd5b6000611bc0858286016119b3565b9250506020611bd1858286016119c8565b9150509250929050565b60008060408385031215611bee57600080fd5b6000611bfc858286016119b3565b925050602083013567ffffffffffffffff811115611c1957600080fd5b611c2585828601611a31565b9150509250929050565b60008060408385031215611c4257600080fd5b6000611c50858286016119b3565b9250506020611c6185828601611a5b565b9150509250929050565b600080600060608486031215611c8057600080fd5b6000611c8e868287016119b3565b9350506020611c9f86828701611a5b565b925050604084013567ffffffffffffffff811115611cbc57600080fd5b611cc886828701611a07565b9150509250925092565b600060208284031215611ce457600080fd5b6000611cf2848285016119dd565b91505092915050565b600060208284031215611d0d57600080fd5b6000611d1b848285016119f2565b91505092915050565b600060208284031215611d3657600080fd5b6000611d4484828501611a5b565b91505092915050565b611d5681612797565b82525050565b611d65816127a9565b82525050565b6000611d7682612699565b611d8081856126af565b9350611d9081856020860161281a565b611d99816129b5565b840191505092915050565b6000611daf826126a4565b611db981856126c0565b9350611dc981856020860161281a565b611dd2816129b5565b840191505092915050565b6000611de8826126a4565b611df281856126d1565b9350611e0281856020860161281a565b80840191505092915050565b6000611e1b6041836126c0565b91507f455243373231204552523a2066726f6d206973206e6f7420746865206f776e6560008301527f72206f662074686520746f6b656e206f7220697420646f65736e74206578697360208301527f74000000000000000000000000000000000000000000000000000000000000006040830152606082019050919050565b6000611ea7604d836126c0565b91507f455243373231204552523a20796f7520617265206e6f7420746865206f776e6560008301527f72206f7220796f7520646f6e742068617665207065726d697373696f6e20666f60208301527f72207468697320616374696f6e000000000000000000000000000000000000006040830152606082019050919050565b6000611f336036836126c0565b91507f455243373231204552523a205472616e7366657220746f206e6f6e204552433760008301527f3231526563656976657220696d706c656d656e746572000000000000000000006020830152604082019050919050565b6000611f99602a836126c0565b91507f455243373231204552523a2063616e6e6f742073656e6420746f6b656e20746f60008301527f20616464726573732030000000000000000000000000000000000000000000006020830152604082019050919050565b6000611fff6020836126c0565b91507f43616e277420636865636b2062616c616e6365206f6620302d616464726573736000830152602082019050919050565b600061203f601e836126c0565b91507f455243373231204552523a20546f6b656e20646f65736e7420657869737400006000830152602082019050919050565b600061207f602e836126c0565b91507f45524337323155524953746f726167653a2055524920736574206f66206e6f6e60008301527f6578697374656e7420746f6b656e0000000000000000000000000000000000006020830152604082019050919050565b60006120e56020836126c0565b91507f455243373231204552523a20546f6b656e20616c7265616479206578697374736000830152602082019050919050565b60006121256029836126c0565b91507f455243373231204552523a2044657374696e6174696f6e206d7573742062652060008301527f646966666572656e7400000000000000000000000000000000000000000000006020830152604082019050919050565b600061218b6022836126c0565b91507f455243373231204552523a20746f6b656e496420646f6573206e6f742065786960008301527f73740000000000000000000000000000000000000000000000000000000000006020830152604082019050919050565b60006121f1602f836126c0565b91507f4552433732314d657461646174613a2055524920717565727920666f72206e6f60008301527f6e6578697374656e7420746f6b656e00000000000000000000000000000000006020830152604082019050919050565b6000612257601d836126c0565b91507f455243373231204552523a204d696e7420746f203020616464726573730000006000830152602082019050919050565b6000612297603f836126c0565b91507f455243373231204552523a20596f75206e656564207065726d697373696f6e2060008301527f6f72206f776e65727368697020666f722074686973206f7065726174696f6e006020830152604082019050919050565b60006122fd603c836126c0565b91507f455243373231204552523a2044657374696e6174696f6e206d7573742062652060008301527f646966666572656e742061646472657373207468616e206f776e6572000000006020830152604082019050919050565b61235f81612801565b82525050565b60006123718285611ddd565b915061237d8284611ddd565b91508190509392505050565b600060208201905061239e6000830184611d4d565b92915050565b60006080820190506123b96000830187611d4d565b6123c66020830186611d4d565b6123d36040830185612356565b81810360608301526123e58184611d6b565b905095945050505050565b60006020820190506124056000830184611d5c565b92915050565b600060208201905081810360008301526124258184611da4565b905092915050565b6000602082019050818103600083015261244681611e0e565b9050919050565b6000602082019050818103600083015261246681611e9a565b9050919050565b6000602082019050818103600083015261248681611f26565b9050919050565b600060208201905081810360008301526124a681611f8c565b9050919050565b600060208201905081810360008301526124c681611ff2565b9050919050565b600060208201905081810360008301526124e681612032565b9050919050565b6000602082019050818103600083015261250681612072565b9050919050565b60006020820190508181036000830152612526816120d8565b9050919050565b6000602082019050818103600083015261254681612118565b9050919050565b600060208201905081810360008301526125668161217e565b9050919050565b60006020820190508181036000830152612586816121e4565b9050919050565b600060208201905081810360008301526125a68161224a565b9050919050565b600060208201905081810360008301526125c68161228a565b9050919050565b600060208201905081810360008301526125e6816122f0565b9050919050565b60006020820190506126026000830184612356565b92915050565b6000604051905081810181811067ffffffffffffffff8211171561262f5761262e612986565b5b8060405250919050565b600067ffffffffffffffff82111561265457612653612986565b5b601f19601f8301169050602081019050919050565b600067ffffffffffffffff82111561268457612683612986565b5b601f19601f8301169050602081019050919050565b600081519050919050565b600081519050919050565b600082825260208201905092915050565b600082825260208201905092915050565b600081905092915050565b60006126e782612801565b91506126f283612801565b9250827fffffffffffffffffffffffffffffffffffffffffffffffffffffffffffffffff03821115612727576127266128f9565b5b828201905092915050565b600061273d82612801565b915061274883612801565b92508261275857612757612928565b5b828204905092915050565b600061276e82612801565b915061277983612801565b92508282101561278c5761278b6128f9565b5b828203905092915050565b60006127a2826127e1565b9050919050565b60008115159050919050565b60007fffffffff0000000000000000000000000000000000000000000000000000000082169050919050565b600073ffffffffffffffffffffffffffffffffffffffff82169050919050565b6000819050919050565b82818337600083830152505050565b60005b8381101561283857808201518184015260208101905061281d565b83811115612847576000848401525b50505050565b6000600282049050600182168061286557607f821691505b6020821081141561287957612878612957565b5b50919050565b600061288a82612801565b91507fffffffffffffffffffffffffffffffffffffffffffffffffffffffffffffffff8214156128bd576128bc6128f9565b5b600182019050919050565b60006128d382612801565b91506128de83612801565b9250826128ee576128ed612928565b5b828206905092915050565b7f4e487b7100000000000000000000000000000000000000000000000000000000600052601160045260246000fd5b7f4e487b7100000000000000000000000000000000000000000000000000000000600052601260045260246000fd5b7f4e487b7100000000000000000000000000000000000000000000000000000000600052602260045260246000fd5b7f4e487b7100000000000000000000000000000000000000000000000000000000600052604160045260246000fd5b6000601f19601f8301169050919050565b6129cf81612797565b81146129da57600080fd5b50565b6129e6816127a9565b81146129f157600080fd5b50565b6129fd816127b5565b8114612a0857600080fd5b50565b612a1481612801565b8114612a1f57600080fd5b5056fe687474703a2f2f323663612d3139302d31382d3135342d34362e6e67726f6b2e696f2f6170692f6572633732312f313f69643da26469706673582212203c03efba71f124b25f6f0534405cc6f3197254dcb93214bb09461a5dc15065ef64736f6c63430008000033",
  "linkReferences": {},
  "deployedLinkReferences": {}
}