{
  "_format": "hh-sol-artifact-1",
  "contractName": "Token721",
  "sourceName": "contracts/Token721.sol",
  "abi": [
    {
      "inputs": [
        {
          "internalType": "string",
          "name": "_tokenName",
          "type": "string"
        },
        {
          "internalType": "string",
          "name": "_tokenSymbol",
          "type": "string"
        }
      ],
      "stateMutability": "nonpayable",
      "type": "constructor"
    },
    {
      "anonymous": false,
      "inputs": [
        {
          "indexed": true,
          "internalType": "address",
          "name": "_owner",
          "type": "address"
        },
        {
          "indexed": true,
          "internalType": "address",
          "name": "_approved",
          "type": "address"
        },
        {
          "indexed": true,
          "internalType": "uint256",
          "name": "_tokenId",
          "type": "uint256"
        }
      ],
      "name": "Approval",
      "type": "event"
    },
    {
      "anonymous": false,
      "inputs": [
        {
          "indexed": true,
          "internalType": "address",
          "name": "_owner",
          "type": "address"
        },
        {
          "indexed": true,
          "internalType": "address",
          "name": "_operator",
          "type": "address"
        },
        {
          "indexed": false,
          "internalType": "bool",
          "name": "_approved",
          "type": "bool"
        }
      ],
      "name": "ApprovalForAll",
      "type": "event"
    },
    {
      "anonymous": false,
      "inputs": [
        {
          "indexed": true,
          "internalType": "address",
          "name": "_from",
          "type": "address"
        },
        {
          "indexed": true,
          "internalType": "address",
          "name": "_to",
          "type": "address"
        },
        {
          "indexed": true,
          "internalType": "uint256",
          "name": "_tokenId",
          "type": "uint256"
        }
      ],
      "name": "Transfer",
      "type": "event"
    },
    {
      "inputs": [],
      "name": "_name",
      "outputs": [
        {
          "internalType": "string",
          "name": "",
          "type": "string"
        }
      ],
      "stateMutability": "view",
      "type": "function"
    },
    {
      "inputs": [
        {
          "internalType": "address",
          "name": "to",
          "type": "address"
        },
        {
          "internalType": "uint256",
          "name": "tokenId",
          "type": "uint256"
        },
        {
          "internalType": "bytes",
          "name": "_data",
          "type": "bytes"
        }
      ],
      "name": "_safeMint",
      "outputs": [],
      "stateMutability": "nonpayable",
      "type": "function"
    },
    {
      "inputs": [
        {
          "internalType": "address",
          "name": "to",
          "type": "address"
        },
        {
          "internalType": "uint256",
          "name": "tokenId",
          "type": "uint256"
        }
      ],
      "name": "_safeMint",
      "outputs": [],
      "stateMutability": "nonpayable",
      "type": "function"
    },
    {
      "inputs": [],
      "name": "_symbol",
      "outputs": [
        {
          "internalType": "string",
          "name": "",
          "type": "string"
        }
      ],
      "stateMutability": "view",
      "type": "function"
    },
    {
      "inputs": [
        {
          "internalType": "address",
          "name": "to",
          "type": "address"
        },
        {
          "internalType": "uint256",
          "name": "tokenId",
          "type": "uint256"
        }
      ],
      "name": "approve",
      "outputs": [],
      "stateMutability": "nonpayable",
      "type": "function"
    },
    {
      "inputs": [
        {
          "internalType": "address",
          "name": "_owner",
          "type": "address"
        }
      ],
      "name": "balanceOf",
      "outputs": [
        {
          "internalType": "uint256",
          "name": "",
          "type": "uint256"
        }
      ],
      "stateMutability": "view",
      "type": "function"
    },
    {
      "inputs": [
        {
          "internalType": "uint256",
          "name": "tokenId",
          "type": "uint256"
        }
      ],
      "name": "getApproved",
      "outputs": [
        {
          "internalType": "address",
          "name": "",
          "type": "address"
        }
      ],
      "stateMutability": "view",
      "type": "function"
    },
    {
      "inputs": [
        {
          "internalType": "address",
          "name": "owner",
          "type": "address"
        },
        {
          "internalType": "address",
          "name": "operator",
          "type": "address"
        }
      ],
      "name": "isApprovedForAll",
      "outputs": [
        {
          "internalType": "bool",
          "name": "",
          "type": "bool"
        }
      ],
      "stateMutability": "view",
      "type": "function"
    },
    {
      "inputs": [
        {
          "internalType": "uint256",
          "name": "tokenId",
          "type": "uint256"
        }
      ],
      "name": "ownerOf",
      "outputs": [
        {
          "internalType": "address",
          "name": "_owner",
          "type": "address"
        }
      ],
      "stateMutability": "view",
      "type": "function"
    },
    {
      "inputs": [
        {
          "internalType": "address",
          "name": "from",
          "type": "address"
        },
        {
          "internalType": "address",
          "name": "to",
          "type": "address"
        },
        {
          "internalType": "uint256",
          "name": "tokenId",
          "type": "uint256"
        }
      ],
      "name": "safeTransferFrom",
      "outputs": [],
      "stateMutability": "nonpayable",
      "type": "function"
    },
    {
      "inputs": [
        {
          "internalType": "address",
          "name": "from",
          "type": "address"
        },
        {
          "internalType": "address",
          "name": "to",
          "type": "address"
        },
        {
          "internalType": "uint256",
          "name": "tokenId",
          "type": "uint256"
        },
        {
          "internalType": "bytes",
          "name": "_data",
          "type": "bytes"
        }
      ],
      "name": "safeTransferFrom",
      "outputs": [],
      "stateMutability": "nonpayable",
      "type": "function"
    },
    {
      "inputs": [
        {
          "internalType": "address",
          "name": "operator",
          "type": "address"
        },
        {
          "internalType": "bool",
          "name": "approved",
          "type": "bool"
        }
      ],
      "name": "setApprovalForAll",
      "outputs": [],
      "stateMutability": "nonpayable",
      "type": "function"
    },
    {
      "inputs": [
        {
          "internalType": "bytes4",
          "name": "interfaceId",
          "type": "bytes4"
        }
      ],
      "name": "supportsInterface",
      "outputs": [
        {
          "internalType": "bool",
          "name": "",
          "type": "bool"
        }
      ],
      "stateMutability": "view",
      "type": "function"
    },
    {
      "inputs": [
        {
          "internalType": "address",
          "name": "from",
          "type": "address"
        },
        {
          "internalType": "address",
          "name": "to",
          "type": "address"
        },
        {
          "internalType": "uint256",
          "name": "tokenId",
          "type": "uint256"
        }
      ],
      "name": "transferFrom",
      "outputs": [],
      "stateMutability": "nonpayable",
      "type": "function"
    }
  ],
  "bytecode": "0x60806040523480156200001157600080fd5b506040516200242038038062002420833981810160405281019062000037919062000193565b81600090805190602001906200004f92919062000071565b5080600190805190602001906200006892919062000071565b50505062000337565b8280546200007f90620002a3565b90600052602060002090601f016020900481019282620000a35760008555620000ef565b82601f10620000be57805160ff1916838001178555620000ef565b82800160010185558215620000ef579182015b82811115620000ee578251825591602001919060010190620000d1565b5b509050620000fe919062000102565b5090565b5b808211156200011d57600081600090555060010162000103565b5090565b60006200013862000132846200023a565b62000206565b9050828152602081018484840111156200015157600080fd5b6200015e8482856200026d565b509392505050565b600082601f8301126200017857600080fd5b81516200018a84826020860162000121565b91505092915050565b60008060408385031215620001a757600080fd5b600083015167ffffffffffffffff811115620001c257600080fd5b620001d08582860162000166565b925050602083015167ffffffffffffffff811115620001ee57600080fd5b620001fc8582860162000166565b9150509250929050565b6000604051905081810181811067ffffffffffffffff8211171562000230576200022f62000308565b5b8060405250919050565b600067ffffffffffffffff82111562000258576200025762000308565b5b601f19601f8301169050602081019050919050565b60005b838110156200028d57808201518184015260208101905062000270565b838111156200029d576000848401525b50505050565b60006002820490506001821680620002bc57607f821691505b60208210811415620002d357620002d2620002d9565b5b50919050565b7f4e487b7100000000000000000000000000000000000000000000000000000000600052602260045260246000fd5b7f4e487b7100000000000000000000000000000000000000000000000000000000600052604160045260246000fd5b6120d980620003476000396000f3fe608060405234801561001057600080fd5b50600436106100ea5760003560e01c806370a082311161008c578063b3e1c71811610066578063b3e1c71814610259578063b88d4fde14610275578063d28d885214610291578063e985e9c5146102af576100ea565b806370a08231146101ef578063a22cb4651461021f578063b09f12661461023b576100ea565b806323b872dd116100c857806323b872dd1461016b57806342842e0e146101875780636352211e146101a35780636a4f832b146101d3576100ea565b806301ffc9a7146100ef578063081812fc1461011f578063095ea7b31461014f575b600080fd5b610109600480360381019061010491906115c9565b6102df565b6040516101169190611bc6565b60405180910390f35b6101396004803603810190610134919061161b565b610359565b6040516101469190611b5f565b60405180910390f35b61016960048036038101906101649190611526565b6103de565b005b61018560048036038101906101809190611420565b6104e8565b005b6101a1600480360381019061019c9190611420565b610541565b005b6101bd60048036038101906101b8919061161b565b610561565b6040516101ca9190611b5f565b60405180910390f35b6101ed60048036038101906101e89190611562565b610613565b005b610209600480360381019061020491906113bb565b61066e565b6040516102169190611d83565b60405180910390f35b610239600480360381019061023491906114ea565b610726565b005b610243610892565b6040516102509190611be1565b60405180910390f35b610273600480360381019061026e9190611526565b610920565b005b61028f600480360381019061028a919061146f565b61093e565b005b610299610999565b6040516102a69190611be1565b60405180910390f35b6102c960048036038101906102c491906113e4565b610a27565b6040516102d69190611bc6565b60405180910390f35b60007f80ac58cd000000000000000000000000000000000000000000000000000000007bffffffffffffffffffffffffffffffffffffffffffffffffffffffff1916827bffffffffffffffffffffffffffffffffffffffffffffffffffffffff19161480610352575061035182610abb565b5b9050919050565b600061036482610b25565b6103a3576040517f08c379a000000000000000000000000000000000000000000000000000000000815260040161039a90611ca3565b60405180910390fd5b6004600083815260200190815260200160002060009054906101000a900473ffffffffffffffffffffffffffffffffffffffff169050919050565b60006103e982610561565b90508073ffffffffffffffffffffffffffffffffffffffff168373ffffffffffffffffffffffffffffffffffffffff16141561045a576040517f08c379a000000000000000000000000000000000000000000000000000000000815260040161045190611d63565b60405180910390fd5b8073ffffffffffffffffffffffffffffffffffffffff163373ffffffffffffffffffffffffffffffffffffffff16148061049a57506104998133610a27565b5b6104d9576040517f08c379a00000000000000000000000000000000000000000000000000000000081526004016104d090611c23565b60405180910390fd5b6104e38383610b91565b505050565b6104f23382610c4a565b610531576040517f08c379a000000000000000000000000000000000000000000000000000000000815260040161052890611d43565b60405180910390fd5b61053c838383610ce2565b505050565b61055c8383836040518060200160405280600081525061093e565b505050565b6000806002600084815260200190815260200160002060009054906101000a900473ffffffffffffffffffffffffffffffffffffffff169050600073ffffffffffffffffffffffffffffffffffffffff168173ffffffffffffffffffffffffffffffffffffffff16141561060a576040517f08c379a000000000000000000000000000000000000000000000000000000000815260040161060190611d03565b60405180910390fd5b80915050919050565b61061d8383610f28565b61062a60008484846110f6565b610669576040517f08c379a000000000000000000000000000000000000000000000000000000000815260040161066090611c43565b60405180910390fd5b505050565b60008073ffffffffffffffffffffffffffffffffffffffff168273ffffffffffffffffffffffffffffffffffffffff1614156106df576040517f08c379a00000000000000000000000000000000000000000000000000000000081526004016106d690611c83565b60405180910390fd5b600360008373ffffffffffffffffffffffffffffffffffffffff1673ffffffffffffffffffffffffffffffffffffffff168152602001908152602001600020549050919050565b8173ffffffffffffffffffffffffffffffffffffffff163373ffffffffffffffffffffffffffffffffffffffff161415610795576040517f08c379a000000000000000000000000000000000000000000000000000000000815260040161078c90611ce3565b60405180910390fd5b80600560003373ffffffffffffffffffffffffffffffffffffffff1673ffffffffffffffffffffffffffffffffffffffff16815260200190815260200160002060008473ffffffffffffffffffffffffffffffffffffffff1673ffffffffffffffffffffffffffffffffffffffff16815260200190815260200160002060006101000a81548160ff0219169083151502179055508173ffffffffffffffffffffffffffffffffffffffff163373ffffffffffffffffffffffffffffffffffffffff167f17307eab39ab6107e8899845ad3d59bd9653f200f220920489ca2b5937696c31836040516108869190611bc6565b60405180910390a35050565b6001805461089f90611f77565b80601f01602080910402602001604051908101604052809291908181526020018280546108cb90611f77565b80156109185780601f106108ed57610100808354040283529160200191610918565b820191906000526020600020905b8154815290600101906020018083116108fb57829003601f168201915b505050505081565b61093a828260405180602001604052806000815250610613565b5050565b6109483383610c4a565b610987576040517f08c379a000000000000000000000000000000000000000000000000000000000815260040161097e90611d43565b60405180910390fd5b61099384848484611270565b50505050565b600080546109a690611f77565b80601f01602080910402602001604051908101604052809291908181526020018280546109d290611f77565b8015610a1f5780601f106109f457610100808354040283529160200191610a1f565b820191906000526020600020905b815481529060010190602001808311610a0257829003601f168201915b505050505081565b6000600560008473ffffffffffffffffffffffffffffffffffffffff1673ffffffffffffffffffffffffffffffffffffffff16815260200190815260200160002060008373ffffffffffffffffffffffffffffffffffffffff1673ffffffffffffffffffffffffffffffffffffffff16815260200190815260200160002060009054906101000a900460ff16905092915050565b60007f01ffc9a7000000000000000000000000000000000000000000000000000000007bffffffffffffffffffffffffffffffffffffffffffffffffffffffff1916827bffffffffffffffffffffffffffffffffffffffffffffffffffffffff1916149050919050565b60008073ffffffffffffffffffffffffffffffffffffffff166002600084815260200190815260200160002060009054906101000a900473ffffffffffffffffffffffffffffffffffffffff1673ffffffffffffffffffffffffffffffffffffffff1614159050919050565b816004600083815260200190815260200160002060006101000a81548173ffffffffffffffffffffffffffffffffffffffff021916908373ffffffffffffffffffffffffffffffffffffffff160217905550808273ffffffffffffffffffffffffffffffffffffffff16610c0483610561565b73ffffffffffffffffffffffffffffffffffffffff167f8c5be1e5ebec7d5bd14f71427d1e84f3dd0314c0f7b2291e5b200ac8c7c3b92560405160405180910390a45050565b6000610c5582610561565b73ffffffffffffffffffffffffffffffffffffffff168373ffffffffffffffffffffffffffffffffffffffff161480610cc15750610c9282610359565b73ffffffffffffffffffffffffffffffffffffffff168373ffffffffffffffffffffffffffffffffffffffff16145b80610cda5750610cd9610cd383610561565b84610a27565b5b905092915050565b8273ffffffffffffffffffffffffffffffffffffffff16610d0282610561565b73ffffffffffffffffffffffffffffffffffffffff1614610d58576040517f08c379a0000000000000000000000000000000000000000000000000000000008152600401610d4f90611c03565b60405180910390fd5b600073ffffffffffffffffffffffffffffffffffffffff168273ffffffffffffffffffffffffffffffffffffffff161415610dc8576040517f08c379a0000000000000000000000000000000000000000000000000000000008152600401610dbf90611c63565b60405180910390fd5b6001600360008573ffffffffffffffffffffffffffffffffffffffff1673ffffffffffffffffffffffffffffffffffffffff1681526020019081526020016000206000828254610e189190611e8d565b925050819055506001600360008473ffffffffffffffffffffffffffffffffffffffff1673ffffffffffffffffffffffffffffffffffffffff1681526020019081526020016000206000828254610e6f9190611e37565b92505081905550816002600083815260200190815260200160002060006101000a81548173ffffffffffffffffffffffffffffffffffffffff021916908373ffffffffffffffffffffffffffffffffffffffff160217905550808273ffffffffffffffffffffffffffffffffffffffff168473ffffffffffffffffffffffffffffffffffffffff167fddf252ad1be2c89b69c2b068fc378daa952ba7f163c4a11628f55a4df523b3ef60405160405180910390a4505050565b600073ffffffffffffffffffffffffffffffffffffffff168273ffffffffffffffffffffffffffffffffffffffff161415610f98576040517f08c379a0000000000000000000000000000000000000000000000000000000008152600401610f8f90611d23565b60405180910390fd5b610fa181610b25565b15610fe1576040517f08c379a0000000000000000000000000000000000000000000000000000000008152600401610fd890611cc3565b60405180910390fd5b610fed600083836112cc565b6001600360008473ffffffffffffffffffffffffffffffffffffffff1673ffffffffffffffffffffffffffffffffffffffff168152602001908152602001600020600082825461103d9190611e37565b92505081905550816002600083815260200190815260200160002060006101000a81548173ffffffffffffffffffffffffffffffffffffffff021916908373ffffffffffffffffffffffffffffffffffffffff160217905550808273ffffffffffffffffffffffffffffffffffffffff16600073ffffffffffffffffffffffffffffffffffffffff167fddf252ad1be2c89b69c2b068fc378daa952ba7f163c4a11628f55a4df523b3ef60405160405180910390a45050565b6000611101846112d1565b15611263578373ffffffffffffffffffffffffffffffffffffffff1663150b7a02338786866040518563ffffffff1660e01b81526004016111459493929190611b7a565b602060405180830381600087803b15801561115f57600080fd5b505af192505050801561119057506040513d601f19601f8201168201806040525081019061118d91906115f2565b60015b611213573d80600081146111c0576040519150601f19603f3d011682016040523d82523d6000602084013e6111c5565b606091505b5060008151141561120b576040517f08c379a000000000000000000000000000000000000000000000000000000000815260040161120290611c43565b60405180910390fd5b805181602001fd5b63150b7a0260e01b7bffffffffffffffffffffffffffffffffffffffffffffffffffffffff1916817bffffffffffffffffffffffffffffffffffffffffffffffffffffffff191614915050611268565b600190505b949350505050565b61127b848484610ce2565b611287848484846110f6565b6112c6576040517f08c379a00000000000000000000000000000000000000000000000000000000081526004016112bd90611c43565b60405180910390fd5b50505050565b505050565b600080823b905060008163ffffffff1611915050919050565b60006112fd6112f884611dcf565b611d9e565b90508281526020810184848401111561131557600080fd5b611320848285611f35565b509392505050565b60008135905061133781612047565b92915050565b60008135905061134c8161205e565b92915050565b60008135905061136181612075565b92915050565b60008151905061137681612075565b92915050565b600082601f83011261138d57600080fd5b813561139d8482602086016112ea565b91505092915050565b6000813590506113b58161208c565b92915050565b6000602082840312156113cd57600080fd5b60006113db84828501611328565b91505092915050565b600080604083850312156113f757600080fd5b600061140585828601611328565b925050602061141685828601611328565b9150509250929050565b60008060006060848603121561143557600080fd5b600061144386828701611328565b935050602061145486828701611328565b9250506040611465868287016113a6565b9150509250925092565b6000806000806080858703121561148557600080fd5b600061149387828801611328565b94505060206114a487828801611328565b93505060406114b5878288016113a6565b925050606085013567ffffffffffffffff8111156114d257600080fd5b6114de8782880161137c565b91505092959194509250565b600080604083850312156114fd57600080fd5b600061150b85828601611328565b925050602061151c8582860161133d565b9150509250929050565b6000806040838503121561153957600080fd5b600061154785828601611328565b9250506020611558858286016113a6565b9150509250929050565b60008060006060848603121561157757600080fd5b600061158586828701611328565b9350506020611596868287016113a6565b925050604084013567ffffffffffffffff8111156115b357600080fd5b6115bf8682870161137c565b9150509250925092565b6000602082840312156115db57600080fd5b60006115e984828501611352565b91505092915050565b60006020828403121561160457600080fd5b600061161284828501611367565b91505092915050565b60006020828403121561162d57600080fd5b600061163b848285016113a6565b91505092915050565b61164d81611ec1565b82525050565b61165c81611ed3565b82525050565b600061166d82611dff565b6116778185611e15565b9350611687818560208601611f44565b61169081612036565b840191505092915050565b60006116a682611e0a565b6116b08185611e26565b93506116c0818560208601611f44565b6116c981612036565b840191505092915050565b60006116e1604183611e26565b91507f455243373231204552523a2066726f6d206973206e6f7420746865206f776e6560008301527f72206f662074686520746f6b656e206f7220697420646f65736e74206578697360208301527f74000000000000000000000000000000000000000000000000000000000000006040830152606082019050919050565b600061176d604d83611e26565b91507f455243373231204552523a20796f7520617265206e6f7420746865206f776e6560008301527f72206f7220796f7520646f6e742068617665207065726d697373696f6e20666f60208301527f72207468697320616374696f6e000000000000000000000000000000000000006040830152606082019050919050565b60006117f9603683611e26565b91507f455243373231204552523a205472616e7366657220746f206e6f6e204552433760008301527f3231526563656976657220696d706c656d656e746572000000000000000000006020830152604082019050919050565b600061185f602a83611e26565b91507f455243373231204552523a2063616e6e6f742073656e6420746f6b656e20746f60008301527f20616464726573732030000000000000000000000000000000000000000000006020830152604082019050919050565b60006118c5602083611e26565b91507f43616e277420636865636b2062616c616e6365206f6620302d616464726573736000830152602082019050919050565b6000611905601e83611e26565b91507f455243373231204552523a20546f6b656e20646f65736e7420657869737400006000830152602082019050919050565b6000611945602083611e26565b91507f455243373231204552523a20546f6b656e20616c7265616479206578697374736000830152602082019050919050565b6000611985602983611e26565b91507f455243373231204552523a2044657374696e6174696f6e206d7573742062652060008301527f646966666572656e7400000000000000000000000000000000000000000000006020830152604082019050919050565b60006119eb602283611e26565b91507f455243373231204552523a20746f6b656e496420646f6573206e6f742065786960008301527f73740000000000000000000000000000000000000000000000000000000000006020830152604082019050919050565b6000611a51601d83611e26565b91507f455243373231204552523a204d696e7420746f203020616464726573730000006000830152602082019050919050565b6000611a91603f83611e26565b91507f455243373231204552523a20596f75206e656564207065726d697373696f6e2060008301527f6f72206f776e65727368697020666f722074686973206f7065726174696f6e006020830152604082019050919050565b6000611af7603c83611e26565b91507f455243373231204552523a2044657374696e6174696f6e206d7573742062652060008301527f646966666572656e742061646472657373207468616e206f776e6572000000006020830152604082019050919050565b611b5981611f2b565b82525050565b6000602082019050611b746000830184611644565b92915050565b6000608082019050611b8f6000830187611644565b611b9c6020830186611644565b611ba96040830185611b50565b8181036060830152611bbb8184611662565b905095945050505050565b6000602082019050611bdb6000830184611653565b92915050565b60006020820190508181036000830152611bfb818461169b565b905092915050565b60006020820190508181036000830152611c1c816116d4565b9050919050565b60006020820190508181036000830152611c3c81611760565b9050919050565b60006020820190508181036000830152611c5c816117ec565b9050919050565b60006020820190508181036000830152611c7c81611852565b9050919050565b60006020820190508181036000830152611c9c816118b8565b9050919050565b60006020820190508181036000830152611cbc816118f8565b9050919050565b60006020820190508181036000830152611cdc81611938565b9050919050565b60006020820190508181036000830152611cfc81611978565b9050919050565b60006020820190508181036000830152611d1c816119de565b9050919050565b60006020820190508181036000830152611d3c81611a44565b9050919050565b60006020820190508181036000830152611d5c81611a84565b9050919050565b60006020820190508181036000830152611d7c81611aea565b9050919050565b6000602082019050611d986000830184611b50565b92915050565b6000604051905081810181811067ffffffffffffffff82111715611dc557611dc4612007565b5b8060405250919050565b600067ffffffffffffffff821115611dea57611de9612007565b5b601f19601f8301169050602081019050919050565b600081519050919050565b600081519050919050565b600082825260208201905092915050565b600082825260208201905092915050565b6000611e4282611f2b565b9150611e4d83611f2b565b9250827fffffffffffffffffffffffffffffffffffffffffffffffffffffffffffffffff03821115611e8257611e81611fa9565b5b828201905092915050565b6000611e9882611f2b565b9150611ea383611f2b565b925082821015611eb657611eb5611fa9565b5b828203905092915050565b6000611ecc82611f0b565b9050919050565b60008115159050919050565b60007fffffffff0000000000000000000000000000000000000000000000000000000082169050919050565b600073ffffffffffffffffffffffffffffffffffffffff82169050919050565b6000819050919050565b82818337600083830152505050565b60005b83811015611f62578082015181840152602081019050611f47565b83811115611f71576000848401525b50505050565b60006002820490506001821680611f8f57607f821691505b60208210811415611fa357611fa2611fd8565b5b50919050565b7f4e487b7100000000000000000000000000000000000000000000000000000000600052601160045260246000fd5b7f4e487b7100000000000000000000000000000000000000000000000000000000600052602260045260246000fd5b7f4e487b7100000000000000000000000000000000000000000000000000000000600052604160045260246000fd5b6000601f19601f8301169050919050565b61205081611ec1565b811461205b57600080fd5b50565b61206781611ed3565b811461207257600080fd5b50565b61207e81611edf565b811461208957600080fd5b50565b61209581611f2b565b81146120a057600080fd5b5056fea26469706673582212204d68776fa5a05cf725906e158522d23260d4dd8f3e83ce3755dff91ebc7f1cd664736f6c63430008000033",
  "linkReferences": {},
  "deployedLinkReferences": {}
}