{
  "_format": "hh-sol-artifact-1",
  "contractName": "casinoToken",
  "sourceName": "contracts/erc20.sol",
  "abi": [
    {
      "inputs": [],
      "stateMutability": "nonpayable",
      "type": "constructor"
    },
    {
      "anonymous": false,
      "inputs": [
        {
          "indexed": true,
          "internalType": "address",
          "name": "_owner",
          "type": "address"
        },
        {
          "indexed": true,
          "internalType": "address",
          "name": "_spender",
          "type": "address"
        },
        {
          "indexed": false,
          "internalType": "uint256",
          "name": "_value",
          "type": "uint256"
        }
      ],
      "name": "Approval",
      "type": "event"
    },
    {
      "anonymous": false,
      "inputs": [
        {
          "indexed": true,
          "internalType": "address",
          "name": "_from",
          "type": "address"
        },
        {
          "indexed": true,
          "internalType": "address",
          "name": "_to",
          "type": "address"
        },
        {
          "indexed": false,
          "internalType": "uint256",
          "name": "_value",
          "type": "uint256"
        }
      ],
      "name": "Transfer",
      "type": "event"
    },
    {
      "inputs": [
        {
          "internalType": "address",
          "name": "",
          "type": "address"
        },
        {
          "internalType": "address",
          "name": "",
          "type": "address"
        }
      ],
      "name": "_allowances",
      "outputs": [
        {
          "internalType": "uint256",
          "name": "",
          "type": "uint256"
        }
      ],
      "stateMutability": "view",
      "type": "function"
    },
    {
      "inputs": [],
      "name": "_decimals",
      "outputs": [
        {
          "internalType": "uint8",
          "name": "",
          "type": "uint8"
        }
      ],
      "stateMutability": "view",
      "type": "function"
    },
    {
      "inputs": [],
      "name": "_name",
      "outputs": [
        {
          "internalType": "string",
          "name": "",
          "type": "string"
        }
      ],
      "stateMutability": "view",
      "type": "function"
    },
    {
      "inputs": [],
      "name": "_symbol",
      "outputs": [
        {
          "internalType": "string",
          "name": "",
          "type": "string"
        }
      ],
      "stateMutability": "view",
      "type": "function"
    },
    {
      "inputs": [],
      "name": "_totalSupply",
      "outputs": [
        {
          "internalType": "uint256",
          "name": "",
          "type": "uint256"
        }
      ],
      "stateMutability": "view",
      "type": "function"
    },
    {
      "inputs": [
        {
          "internalType": "address",
          "name": "_owner",
          "type": "address"
        },
        {
          "internalType": "address",
          "name": "_spender",
          "type": "address"
        }
      ],
      "name": "allowance",
      "outputs": [
        {
          "internalType": "uint256",
          "name": "remaining",
          "type": "uint256"
        }
      ],
      "stateMutability": "view",
      "type": "function"
    },
    {
      "inputs": [
        {
          "internalType": "address",
          "name": "_spender",
          "type": "address"
        },
        {
          "internalType": "uint256",
          "name": "_value",
          "type": "uint256"
        }
      ],
      "name": "approve",
      "outputs": [
        {
          "internalType": "bool",
          "name": "success",
          "type": "bool"
        }
      ],
      "stateMutability": "nonpayable",
      "type": "function"
    },
    {
      "inputs": [
        {
          "internalType": "address",
          "name": "_owner",
          "type": "address"
        }
      ],
      "name": "balanceOf",
      "outputs": [
        {
          "internalType": "uint256",
          "name": "balance",
          "type": "uint256"
        }
      ],
      "stateMutability": "view",
      "type": "function"
    },
    {
      "inputs": [
        {
          "internalType": "address",
          "name": "",
          "type": "address"
        }
      ],
      "name": "balances",
      "outputs": [
        {
          "internalType": "uint256",
          "name": "",
          "type": "uint256"
        }
      ],
      "stateMutability": "view",
      "type": "function"
    },
    {
      "inputs": [],
      "name": "decimals",
      "outputs": [
        {
          "internalType": "uint8",
          "name": "",
          "type": "uint8"
        }
      ],
      "stateMutability": "view",
      "type": "function"
    },
    {
      "inputs": [],
      "name": "name",
      "outputs": [
        {
          "internalType": "string",
          "name": "",
          "type": "string"
        }
      ],
      "stateMutability": "view",
      "type": "function"
    },
    {
      "inputs": [],
      "name": "symbol",
      "outputs": [
        {
          "internalType": "string",
          "name": "",
          "type": "string"
        }
      ],
      "stateMutability": "view",
      "type": "function"
    },
    {
      "inputs": [],
      "name": "tokenOwner",
      "outputs": [
        {
          "internalType": "address",
          "name": "",
          "type": "address"
        }
      ],
      "stateMutability": "view",
      "type": "function"
    },
    {
      "inputs": [],
      "name": "totalSupply",
      "outputs": [
        {
          "internalType": "uint256",
          "name": "",
          "type": "uint256"
        }
      ],
      "stateMutability": "view",
      "type": "function"
    },
    {
      "inputs": [
        {
          "internalType": "address",
          "name": "_to",
          "type": "address"
        },
        {
          "internalType": "uint256",
          "name": "_value",
          "type": "uint256"
        }
      ],
      "name": "transfer",
      "outputs": [
        {
          "internalType": "bool",
          "name": "success",
          "type": "bool"
        }
      ],
      "stateMutability": "nonpayable",
      "type": "function"
    },
    {
      "inputs": [
        {
          "internalType": "address",
          "name": "_from",
          "type": "address"
        },
        {
          "internalType": "address",
          "name": "_to",
          "type": "address"
        },
        {
          "internalType": "uint256",
          "name": "_value",
          "type": "uint256"
        }
      ],
      "name": "transferFrom",
      "outputs": [
        {
          "internalType": "bool",
          "name": "success",
          "type": "bool"
        }
      ],
      "stateMutability": "nonpayable",
      "type": "function"
    }
  ],
  "bytecode": "0x60806040523480156200001157600080fd5b50600a6040518060400160405280600c81526020017f436173696e6f20746f6b656e000000000000000000000000000000000000000081525060006040518060400160405280600681526020017f636173696e6f000000000000000000000000000000000000000000000000000081525069d3c21bcecceda1000000841115620000d2576040517f08c379a0000000000000000000000000000000000000000000000000000000008152600401620000c990620002cc565b60405180910390fd5b836000803373ffffffffffffffffffffffffffffffffffffffff1673ffffffffffffffffffffffffffffffffffffffff1681526020019081526020016000208190555083600281905550826003908051906020019062000134929190620001b4565b5081600460006101000a81548160ff021916908360ff160217905550806005908051906020019062000168929190620001b4565b505050505033600660006101000a81548173ffffffffffffffffffffffffffffffffffffffff021916908373ffffffffffffffffffffffffffffffffffffffff16021790555062000364565b828054620001c290620002ff565b90600052602060002090601f016020900481019282620001e6576000855562000232565b82601f106200020157805160ff191683800117855562000232565b8280016001018555821562000232579182015b828111156200023157825182559160200191906001019062000214565b5b50905062000241919062000245565b5090565b5b808211156200026057600081600090555060010162000246565b5090565b600062000273602183620002ee565b91507f4572726f723a20616d6f756e7420726571756573746564206f6620746f6b656e60008301527f73000000000000000000000000000000000000000000000000000000000000006020830152604082019050919050565b60006020820190508181036000830152620002e78162000264565b9050919050565b600082825260208201905092915050565b600060028204905060018216806200031857607f821691505b602082108114156200032f576200032e62000335565b5b50919050565b7f4e487b7100000000000000000000000000000000000000000000000000000000600052602260045260246000fd5b61140b80620003746000396000f3fe608060405234801561001057600080fd5b50600436106101005760003560e01c80633eaaf86b11610097578063a9059cbb11610066578063a9059cbb146102c7578063b09f1266146102f7578063d28d885214610315578063dd62ed3e1461033357610100565b80633eaaf86b1461023d57806370a082311461025b57806395d89b411461028b578063a3e67610146102a957610100565b806323b872dd116100d357806323b872dd146101a157806327e235e3146101d1578063313ce5671461020157806332424aa31461021f57610100565b8063024c2ddd1461010557806306fdde0314610135578063095ea7b31461015357806318160ddd14610183575b600080fd5b61011f600480360381019061011a9190610df6565b610363565b60405161012c91906111a2565b60405180910390f35b61013d610388565b60405161014a9190611100565b60405180910390f35b61016d60048036038101906101689190610e81565b61041a565b60405161017a91906110e5565b60405180910390f35b61018b61050c565b60405161019891906111a2565b60405180910390f35b6101bb60048036038101906101b69190610e32565b610516565b6040516101c891906110e5565b60405180910390f35b6101eb60048036038101906101e69190610dcd565b6108ad565b6040516101f891906111a2565b60405180910390f35b6102096108c5565b60405161021691906111bd565b60405180910390f35b6102276108dc565b60405161023491906111bd565b60405180910390f35b6102456108ef565b60405161025291906111a2565b60405180910390f35b61027560048036038101906102709190610dcd565b6108f5565b60405161028291906111a2565b60405180910390f35b61029361093d565b6040516102a09190611100565b60405180910390f35b6102b16109cf565b6040516102be91906110ca565b60405180910390f35b6102e160048036038101906102dc9190610e81565b6109f5565b6040516102ee91906110e5565b60405180910390f35b6102ff610c00565b60405161030c9190611100565b60405180910390f35b61031d610c8e565b60405161032a9190611100565b60405180910390f35b61034d60048036038101906103489190610df6565b610d1c565b60405161035a91906111a2565b60405180910390f35b6001602052816000526040600020602052806000526040600020600091509150505481565b60606003805461039790611306565b80601f01602080910402602001604051908101604052809291908181526020018280546103c390611306565b80156104105780601f106103e557610100808354040283529160200191610410565b820191906000526020600020905b8154815290600101906020018083116103f357829003601f168201915b5050505050905090565b600081600160003373ffffffffffffffffffffffffffffffffffffffff1673ffffffffffffffffffffffffffffffffffffffff16815260200190815260200160002060008573ffffffffffffffffffffffffffffffffffffffff1673ffffffffffffffffffffffffffffffffffffffff168152602001908152602001600020819055508273ffffffffffffffffffffffffffffffffffffffff163373ffffffffffffffffffffffffffffffffffffffff167f8c5be1e5ebec7d5bd14f71427d1e84f3dd0314c0f7b2291e5b200ac8c7c3b925846040516104fa91906111a2565b60405180910390a36001905092915050565b6000600254905090565b60008073ffffffffffffffffffffffffffffffffffffffff168373ffffffffffffffffffffffffffffffffffffffff161415610587576040517f08c379a000000000000000000000000000000000000000000000000000000000815260040161057e90611162565b60405180910390fd5b600073ffffffffffffffffffffffffffffffffffffffff168473ffffffffffffffffffffffffffffffffffffffff1614156105f7576040517f08c379a00000000000000000000000000000000000000000000000000000000081526004016105ee90611122565b60405180910390fd5b816000808673ffffffffffffffffffffffffffffffffffffffff1673ffffffffffffffffffffffffffffffffffffffff16815260200190815260200160002054101580156106c1575081600160008673ffffffffffffffffffffffffffffffffffffffff1673ffffffffffffffffffffffffffffffffffffffff16815260200190815260200160002060003373ffffffffffffffffffffffffffffffffffffffff1673ffffffffffffffffffffffffffffffffffffffff1681526020019081526020016000205410155b610700576040517f08c379a00000000000000000000000000000000000000000000000000000000081526004016106f790611182565b60405180910390fd5b816000808573ffffffffffffffffffffffffffffffffffffffff1673ffffffffffffffffffffffffffffffffffffffff168152602001908152602001600020600082825461074e91906111f4565b92505081905550816000808673ffffffffffffffffffffffffffffffffffffffff1673ffffffffffffffffffffffffffffffffffffffff16815260200190815260200160002060008282546107a3919061124a565b9250508190555081600160008673ffffffffffffffffffffffffffffffffffffffff1673ffffffffffffffffffffffffffffffffffffffff16815260200190815260200160002060003373ffffffffffffffffffffffffffffffffffffffff1673ffffffffffffffffffffffffffffffffffffffff1681526020019081526020016000206000828254610836919061124a565b925050819055508273ffffffffffffffffffffffffffffffffffffffff168473ffffffffffffffffffffffffffffffffffffffff167fddf252ad1be2c89b69c2b068fc378daa952ba7f163c4a11628f55a4df523b3ef8460405161089a91906111a2565b60405180910390a3600190509392505050565b60006020528060005260406000206000915090505481565b6000600460009054906101000a900460ff16905090565b600460009054906101000a900460ff1681565b60025481565b60008060008373ffffffffffffffffffffffffffffffffffffffff1673ffffffffffffffffffffffffffffffffffffffff168152602001908152602001600020549050919050565b60606005805461094c90611306565b80601f016020809104026020016040519081016040528092919081815260200182805461097890611306565b80156109c55780601f1061099a576101008083540402835291602001916109c5565b820191906000526020600020905b8154815290600101906020018083116109a857829003601f168201915b5050505050905090565b600660009054906101000a900473ffffffffffffffffffffffffffffffffffffffff1681565b60008073ffffffffffffffffffffffffffffffffffffffff168373ffffffffffffffffffffffffffffffffffffffff161415610a66576040517f08c379a0000000000000000000000000000000000000000000000000000000008152600401610a5d90611162565b60405180910390fd5b816000803373ffffffffffffffffffffffffffffffffffffffff1673ffffffffffffffffffffffffffffffffffffffff168152602001908152602001600020541015610ae7576040517f08c379a0000000000000000000000000000000000000000000000000000000008152600401610ade90611142565b60405180910390fd5b816000803373ffffffffffffffffffffffffffffffffffffffff1673ffffffffffffffffffffffffffffffffffffffff1681526020019081526020016000206000828254610b35919061124a565b92505081905550816000808573ffffffffffffffffffffffffffffffffffffffff1673ffffffffffffffffffffffffffffffffffffffff1681526020019081526020016000206000828254610b8a91906111f4565b925050819055508273ffffffffffffffffffffffffffffffffffffffff163373ffffffffffffffffffffffffffffffffffffffff167fddf252ad1be2c89b69c2b068fc378daa952ba7f163c4a11628f55a4df523b3ef84604051610bee91906111a2565b60405180910390a36001905092915050565b60058054610c0d90611306565b80601f0160208091040260200160405190810160405280929190818152602001828054610c3990611306565b8015610c865780601f10610c5b57610100808354040283529160200191610c86565b820191906000526020600020905b815481529060010190602001808311610c6957829003601f168201915b505050505081565b60038054610c9b90611306565b80601f0160208091040260200160405190810160405280929190818152602001828054610cc790611306565b8015610d145780601f10610ce957610100808354040283529160200191610d14565b820191906000526020600020905b815481529060010190602001808311610cf757829003601f168201915b505050505081565b6000600160008473ffffffffffffffffffffffffffffffffffffffff1673ffffffffffffffffffffffffffffffffffffffff16815260200190815260200160002060008373ffffffffffffffffffffffffffffffffffffffff1673ffffffffffffffffffffffffffffffffffffffff16815260200190815260200160002054905092915050565b600081359050610db2816113a7565b92915050565b600081359050610dc7816113be565b92915050565b600060208284031215610ddf57600080fd5b6000610ded84828501610da3565b91505092915050565b60008060408385031215610e0957600080fd5b6000610e1785828601610da3565b9250506020610e2885828601610da3565b9150509250929050565b600080600060608486031215610e4757600080fd5b6000610e5586828701610da3565b9350506020610e6686828701610da3565b9250506040610e7786828701610db8565b9150509250925092565b60008060408385031215610e9457600080fd5b6000610ea285828601610da3565b9250506020610eb385828601610db8565b9150509250929050565b610ec68161127e565b82525050565b610ed581611290565b82525050565b6000610ee6826111d8565b610ef081856111e3565b9350610f008185602086016112d3565b610f0981611396565b840191505092915050565b6000610f216034836111e3565b91507f4572726f723a206974206973206e6f7420706f737369626c6520746f2074726160008301527f6e736665722066726f6d206164647265737320300000000000000000000000006020830152604082019050919050565b6000610f876036836111e3565b91507f4572726f723a20746f6b656e2062616c616e6365206973206c6f77657220746860008301527f616e207468652076616c756520726571756573746564000000000000000000006020830152604082019050919050565b6000610fed6032836111e3565b91507f4572726f723a206974206973206e6f7420706f737369626c6520746f2074726160008301527f6e7366657220746f2061646472657373203000000000000000000000000000006020830152604082019050919050565b60006110536040836111e3565b91507f4572726f723a20746f6b656e2062616c616e6365206f7220616c6c6f77616e6360008301527f65206973206c6f776572207468616e20616d6f756e74207265717565737465646020830152604082019050919050565b6110b5816112bc565b82525050565b6110c4816112c6565b82525050565b60006020820190506110df6000830184610ebd565b92915050565b60006020820190506110fa6000830184610ecc565b92915050565b6000602082019050818103600083015261111a8184610edb565b905092915050565b6000602082019050818103600083015261113b81610f14565b9050919050565b6000602082019050818103600083015261115b81610f7a565b9050919050565b6000602082019050818103600083015261117b81610fe0565b9050919050565b6000602082019050818103600083015261119b81611046565b9050919050565b60006020820190506111b760008301846110ac565b92915050565b60006020820190506111d260008301846110bb565b92915050565b600081519050919050565b600082825260208201905092915050565b60006111ff826112bc565b915061120a836112bc565b9250827fffffffffffffffffffffffffffffffffffffffffffffffffffffffffffffffff0382111561123f5761123e611338565b5b828201905092915050565b6000611255826112bc565b9150611260836112bc565b92508282101561127357611272611338565b5b828203905092915050565b60006112898261129c565b9050919050565b60008115159050919050565b600073ffffffffffffffffffffffffffffffffffffffff82169050919050565b6000819050919050565b600060ff82169050919050565b60005b838110156112f15780820151818401526020810190506112d6565b83811115611300576000848401525b50505050565b6000600282049050600182168061131e57607f821691505b6020821081141561133257611331611367565b5b50919050565b7f4e487b7100000000000000000000000000000000000000000000000000000000600052601160045260246000fd5b7f4e487b7100000000000000000000000000000000000000000000000000000000600052602260045260246000fd5b6000601f19601f8301169050919050565b6113b08161127e565b81146113bb57600080fd5b50565b6113c7816112bc565b81146113d257600080fd5b5056fea2646970667358221220280f55920dda7681a85bac77f1d3910f144c56c9048239d267ae7d5dc010df7964736f6c63430008000033",
  "linkReferences": {},
  "deployedLinkReferences": {}
}