{
  "_format": "hh-sol-artifact-1",
  "contractName": "Exchange",
  "sourceName": "contracts/Exchange.sol",
  "abi": [
    {
      "inputs": [
        {
          "internalType": "address",
          "name": "addr",
          "type": "address"
        }
      ],
      "stateMutability": "nonpayable",
      "type": "constructor"
    },
    {
      "inputs": [
        {
          "internalType": "address",
          "name": "p1",
          "type": "address"
        },
        {
          "internalType": "uint256",
          "name": "t1",
          "type": "uint256"
        },
        {
          "internalType": "address",
          "name": "p2",
          "type": "address"
        },
        {
          "internalType": "uint256",
          "name": "t2",
          "type": "uint256"
        }
      ],
      "name": "exchange_between",
      "outputs": [],
      "stateMutability": "nonpayable",
      "type": "function"
    }
  ],
  "bytecode": "0x608060405234801561001057600080fd5b50604051610441380380610441833981810160405281019061003291906100ce565b806000806101000a81548173ffffffffffffffffffffffffffffffffffffffff021916908373ffffffffffffffffffffffffffffffffffffffff16021790555033600160006101000a81548173ffffffffffffffffffffffffffffffffffffffff021916908373ffffffffffffffffffffffffffffffffffffffff16021790555050610140565b6000815190506100c881610129565b92915050565b6000602082840312156100e057600080fd5b60006100ee848285016100b9565b91505092915050565b600061010282610109565b9050919050565b600073ffffffffffffffffffffffffffffffffffffffff82169050919050565b610132816100f7565b811461013d57600080fd5b50565b6102f28061014f6000396000f3fe608060405234801561001057600080fd5b506004361061002b5760003560e01c806347d3d4be14610030575b600080fd5b61004a6004803603810190610045919061019a565b61004c565b005b60008054906101000a900473ffffffffffffffffffffffffffffffffffffffff1673ffffffffffffffffffffffffffffffffffffffff166342842e0e8584866040518463ffffffff1660e01b81526004016100a99392919061021b565b600060405180830381600087803b1580156100c357600080fd5b505af11580156100d7573d6000803e3d6000fd5b5050505060008054906101000a900473ffffffffffffffffffffffffffffffffffffffff1673ffffffffffffffffffffffffffffffffffffffff166342842e0e8386846040518463ffffffff1660e01b81526004016101389392919061021b565b600060405180830381600087803b15801561015257600080fd5b505af1158015610166573d6000803e3d6000fd5b5050505050505050565b60008135905061017f8161028e565b92915050565b600081359050610194816102a5565b92915050565b600080600080608085870312156101b057600080fd5b60006101be87828801610170565b94505060206101cf87828801610185565b93505060406101e087828801610170565b92505060606101f187828801610185565b91505092959194509250565b61020681610252565b82525050565b61021581610284565b82525050565b600060608201905061023060008301866101fd565b61023d60208301856101fd565b61024a604083018461020c565b949350505050565b600061025d82610264565b9050919050565b600073ffffffffffffffffffffffffffffffffffffffff82169050919050565b6000819050919050565b61029781610252565b81146102a257600080fd5b50565b6102ae81610284565b81146102b957600080fd5b5056fea264697066735822122090b66ae1a24afa070d765438d9b51992de34d95f348e8849dbcb9872b0d8182064736f6c63430008000033",
  "linkReferences": {},
  "deployedLinkReferences": {}
}