{
  "_format": "hh-sol-artifact-1",
  "contractName": "Exchange",
  "sourceName": "contracts/Exchange.sol",
  "abi": [
    {
      "inputs": [
        {
          "internalType": "address",
          "name": "addr",
          "type": "address"
        }
      ],
      "stateMutability": "nonpayable",
      "type": "constructor"
    },
    {
      "anonymous": false,
      "inputs": [
        {
          "indexed": false,
          "internalType": "address",
          "name": "a1",
          "type": "address"
        },
        {
          "indexed": false,
          "internalType": "address",
          "name": "a2",
          "type": "address"
        },
        {
          "indexed": false,
          "internalType": "uint256",
          "name": "t1",
          "type": "uint256"
        },
        {
          "indexed": false,
          "internalType": "uint256",
          "name": "t2",
          "type": "uint256"
        }
      ],
      "name": "Trade",
      "type": "event"
    },
    {
      "inputs": [
        {
          "internalType": "address",
          "name": "p1",
          "type": "address"
        },
        {
          "internalType": "uint256",
          "name": "t1",
          "type": "uint256"
        },
        {
          "internalType": "address",
          "name": "p2",
          "type": "address"
        },
        {
          "internalType": "uint256",
          "name": "t2",
          "type": "uint256"
        }
      ],
      "name": "exchange_between",
      "outputs": [],
      "stateMutability": "nonpayable",
      "type": "function"
    }
  ],
  "bytecode": "0x608060405234801561001057600080fd5b506040516105ea3803806105ea833981810160405281019061003291906100ce565b806000806101000a81548173ffffffffffffffffffffffffffffffffffffffff021916908373ffffffffffffffffffffffffffffffffffffffff16021790555033600160006101000a81548173ffffffffffffffffffffffffffffffffffffffff021916908373ffffffffffffffffffffffffffffffffffffffff16021790555050610140565b6000815190506100c881610129565b92915050565b6000602082840312156100e057600080fd5b60006100ee848285016100b9565b91505092915050565b600061010282610109565b9050919050565b600073ffffffffffffffffffffffffffffffffffffffff82169050919050565b610132816100f7565b811461013d57600080fd5b50565b61049b8061014f6000396000f3fe608060405234801561001057600080fd5b506004361061002b5760003560e01c806347d3d4be14610030575b600080fd5b61004a60048036038101906100459190610267565b61004c565b005b600160009054906101000a900473ffffffffffffffffffffffffffffffffffffffff1673ffffffffffffffffffffffffffffffffffffffff163373ffffffffffffffffffffffffffffffffffffffff16146100dc576040517f08c379a00000000000000000000000000000000000000000000000000000000081526004016100d3906103ca565b60405180910390fd5b60008054906101000a900473ffffffffffffffffffffffffffffffffffffffff1673ffffffffffffffffffffffffffffffffffffffff166342842e0e8584866040518463ffffffff1660e01b81526004016101399392919061034e565b600060405180830381600087803b15801561015357600080fd5b505af1158015610167573d6000803e3d6000fd5b5050505060008054906101000a900473ffffffffffffffffffffffffffffffffffffffff1673ffffffffffffffffffffffffffffffffffffffff166342842e0e8386846040518463ffffffff1660e01b81526004016101c89392919061034e565b600060405180830381600087803b1580156101e257600080fd5b505af11580156101f6573d6000803e3d6000fd5b505050507f4b5796113f074ebf8f11d5bcdeb6349b2fbe47abed78419cdcdbbc15c6fcf8458483858460405161022f9493929190610385565b60405180910390a150505050565b60008135905061024c81610437565b92915050565b6000813590506102618161044e565b92915050565b6000806000806080858703121561027d57600080fd5b600061028b8782880161023d565b945050602061029c87828801610252565b93505060406102ad8782880161023d565b92505060606102be87828801610252565b91505092959194509250565b6102d3816103fb565b82525050565b60006102e66028836103ea565b91507f4f6e6c7920746865206f70657261746f722063616e20696e697469617465206560008301527f786368616e6765730000000000000000000000000000000000000000000000006020830152604082019050919050565b6103488161042d565b82525050565b600060608201905061036360008301866102ca565b61037060208301856102ca565b61037d604083018461033f565b949350505050565b600060808201905061039a60008301876102ca565b6103a760208301866102ca565b6103b4604083018561033f565b6103c1606083018461033f565b95945050505050565b600060208201905081810360008301526103e3816102d9565b9050919050565b600082825260208201905092915050565b60006104068261040d565b9050919050565b600073ffffffffffffffffffffffffffffffffffffffff82169050919050565b6000819050919050565b610440816103fb565b811461044b57600080fd5b50565b6104578161042d565b811461046257600080fd5b5056fea264697066735822122088f867940673e6e3c33bc72f42f7bb1682462a2790072e0e9e9168ff0365b76464736f6c63430008000033",
  "linkReferences": {},
  "deployedLinkReferences": {}
}